{
  "_format": "hh-sol-artifact-1",
  "contractName": "BasketCoin",
  "sourceName": "contracts/BasketCoin.sol",
  "abi": [
    {
      "inputs": [],
      "stateMutability": "nonpayable",
      "type": "constructor"
    },
    {
      "anonymous": false,
      "inputs": [
        {
          "indexed": true,
          "internalType": "address",
          "name": "owner",
          "type": "address"
        },
        {
          "indexed": true,
          "internalType": "address",
          "name": "spender",
          "type": "address"
        },
        {
          "indexed": false,
          "internalType": "uint256",
          "name": "value",
          "type": "uint256"
        }
      ],
      "name": "Approval",
      "type": "event"
    },
    {
      "anonymous": false,
      "inputs": [
        {
          "indexed": true,
          "internalType": "address",
          "name": "previousOwner",
          "type": "address"
        },
        {
          "indexed": true,
          "internalType": "address",
          "name": "newOwner",
          "type": "address"
        }
      ],
      "name": "OwnershipTransferred",
      "type": "event"
    },
    {
      "anonymous": false,
      "inputs": [
        {
          "indexed": false,
          "internalType": "address",
          "name": "account",
          "type": "address"
        }
      ],
      "name": "Paused",
      "type": "event"
    },
    {
      "anonymous": false,
      "inputs": [
        {
          "indexed": false,
          "internalType": "uint256",
          "name": "id",
          "type": "uint256"
        }
      ],
      "name": "Snapshot",
      "type": "event"
    },
    {
      "anonymous": false,
      "inputs": [
        {
          "indexed": true,
          "internalType": "address",
          "name": "from",
          "type": "address"
        },
        {
          "indexed": true,
          "internalType": "address",
          "name": "to",
          "type": "address"
        },
        {
          "indexed": false,
          "internalType": "uint256",
          "name": "value",
          "type": "uint256"
        }
      ],
      "name": "Transfer",
      "type": "event"
    },
    {
      "anonymous": false,
      "inputs": [
        {
          "indexed": false,
          "internalType": "address",
          "name": "account",
          "type": "address"
        }
      ],
      "name": "Unpaused",
      "type": "event"
    },
    {
      "inputs": [],
      "name": "DOMAIN_SEPARATOR",
      "outputs": [
        {
          "internalType": "bytes32",
          "name": "",
          "type": "bytes32"
        }
      ],
      "stateMutability": "view",
      "type": "function"
    },
    {
      "inputs": [
        {
          "internalType": "address",
          "name": "owner",
          "type": "address"
        },
        {
          "internalType": "address",
          "name": "spender",
          "type": "address"
        }
      ],
      "name": "allowance",
      "outputs": [
        {
          "internalType": "uint256",
          "name": "",
          "type": "uint256"
        }
      ],
      "stateMutability": "view",
      "type": "function"
    },
    {
      "inputs": [
        {
          "internalType": "address",
          "name": "spender",
          "type": "address"
        },
        {
          "internalType": "uint256",
          "name": "amount",
          "type": "uint256"
        }
      ],
      "name": "approve",
      "outputs": [
        {
          "internalType": "bool",
          "name": "",
          "type": "bool"
        }
      ],
      "stateMutability": "nonpayable",
      "type": "function"
    },
    {
      "inputs": [
        {
          "internalType": "address",
          "name": "account",
          "type": "address"
        }
      ],
      "name": "balanceOf",
      "outputs": [
        {
          "internalType": "uint256",
          "name": "",
          "type": "uint256"
        }
      ],
      "stateMutability": "view",
      "type": "function"
    },
    {
      "inputs": [
        {
          "internalType": "address",
          "name": "account",
          "type": "address"
        },
        {
          "internalType": "uint256",
          "name": "snapshotId",
          "type": "uint256"
        }
      ],
      "name": "balanceOfAt",
      "outputs": [
        {
          "internalType": "uint256",
          "name": "",
          "type": "uint256"
        }
      ],
      "stateMutability": "view",
      "type": "function"
    },
    {
      "inputs": [
        {
          "internalType": "uint256",
          "name": "amount",
          "type": "uint256"
        }
      ],
      "name": "burn",
      "outputs": [],
      "stateMutability": "nonpayable",
      "type": "function"
    },
    {
      "inputs": [
        {
          "internalType": "address",
          "name": "account",
          "type": "address"
        },
        {
          "internalType": "uint256",
          "name": "amount",
          "type": "uint256"
        }
      ],
      "name": "burnFrom",
      "outputs": [],
      "stateMutability": "nonpayable",
      "type": "function"
    },
    {
      "inputs": [],
      "name": "decimals",
      "outputs": [
        {
          "internalType": "uint8",
          "name": "",
          "type": "uint8"
        }
      ],
      "stateMutability": "view",
      "type": "function"
    },
    {
      "inputs": [
        {
          "internalType": "address",
          "name": "spender",
          "type": "address"
        },
        {
          "internalType": "uint256",
          "name": "subtractedValue",
          "type": "uint256"
        }
      ],
      "name": "decreaseAllowance",
      "outputs": [
        {
          "internalType": "bool",
          "name": "",
          "type": "bool"
        }
      ],
      "stateMutability": "nonpayable",
      "type": "function"
    },
    {
      "inputs": [
        {
          "internalType": "address",
          "name": "spender",
          "type": "address"
        },
        {
          "internalType": "uint256",
          "name": "addedValue",
          "type": "uint256"
        }
      ],
      "name": "increaseAllowance",
      "outputs": [
        {
          "internalType": "bool",
          "name": "",
          "type": "bool"
        }
      ],
      "stateMutability": "nonpayable",
      "type": "function"
    },
    {
      "inputs": [
        {
          "internalType": "address",
          "name": "to",
          "type": "address"
        },
        {
          "internalType": "uint256",
          "name": "amount",
          "type": "uint256"
        }
      ],
      "name": "mint",
      "outputs": [],
      "stateMutability": "nonpayable",
      "type": "function"
    },
    {
      "inputs": [],
      "name": "name",
      "outputs": [
        {
          "internalType": "string",
          "name": "",
          "type": "string"
        }
      ],
      "stateMutability": "view",
      "type": "function"
    },
    {
      "inputs": [
        {
          "internalType": "address",
          "name": "owner",
          "type": "address"
        }
      ],
      "name": "nonces",
      "outputs": [
        {
          "internalType": "uint256",
          "name": "",
          "type": "uint256"
        }
      ],
      "stateMutability": "view",
      "type": "function"
    },
    {
      "inputs": [],
      "name": "owner",
      "outputs": [
        {
          "internalType": "address",
          "name": "",
          "type": "address"
        }
      ],
      "stateMutability": "view",
      "type": "function"
    },
    {
      "inputs": [],
      "name": "pause",
      "outputs": [],
      "stateMutability": "nonpayable",
      "type": "function"
    },
    {
      "inputs": [],
      "name": "paused",
      "outputs": [
        {
          "internalType": "bool",
          "name": "",
          "type": "bool"
        }
      ],
      "stateMutability": "view",
      "type": "function"
    },
    {
      "inputs": [
        {
          "internalType": "address",
          "name": "owner",
          "type": "address"
        },
        {
          "internalType": "address",
          "name": "spender",
          "type": "address"
        },
        {
          "internalType": "uint256",
          "name": "value",
          "type": "uint256"
        },
        {
          "internalType": "uint256",
          "name": "deadline",
          "type": "uint256"
        },
        {
          "internalType": "uint8",
          "name": "v",
          "type": "uint8"
        },
        {
          "internalType": "bytes32",
          "name": "r",
          "type": "bytes32"
        },
        {
          "internalType": "bytes32",
          "name": "s",
          "type": "bytes32"
        }
      ],
      "name": "permit",
      "outputs": [],
      "stateMutability": "nonpayable",
      "type": "function"
    },
    {
      "inputs": [],
      "name": "renounceOwnership",
      "outputs": [],
      "stateMutability": "nonpayable",
      "type": "function"
    },
    {
      "inputs": [],
      "name": "snapshot",
      "outputs": [],
      "stateMutability": "nonpayable",
      "type": "function"
    },
    {
      "inputs": [],
      "name": "symbol",
      "outputs": [
        {
          "internalType": "string",
          "name": "",
          "type": "string"
        }
      ],
      "stateMutability": "view",
      "type": "function"
    },
    {
      "inputs": [],
      "name": "totalSupply",
      "outputs": [
        {
          "internalType": "uint256",
          "name": "",
          "type": "uint256"
        }
      ],
      "stateMutability": "view",
      "type": "function"
    },
    {
      "inputs": [
        {
          "internalType": "uint256",
          "name": "snapshotId",
          "type": "uint256"
        }
      ],
      "name": "totalSupplyAt",
      "outputs": [
        {
          "internalType": "uint256",
          "name": "",
          "type": "uint256"
        }
      ],
      "stateMutability": "view",
      "type": "function"
    },
    {
      "inputs": [
        {
          "internalType": "address",
          "name": "to",
          "type": "address"
        },
        {
          "internalType": "uint256",
          "name": "amount",
          "type": "uint256"
        }
      ],
      "name": "transfer",
      "outputs": [
        {
          "internalType": "bool",
          "name": "",
          "type": "bool"
        }
      ],
      "stateMutability": "nonpayable",
      "type": "function"
    },
    {
      "inputs": [
        {
          "internalType": "address",
          "name": "from",
          "type": "address"
        },
        {
          "internalType": "address",
          "name": "to",
          "type": "address"
        },
        {
          "internalType": "uint256",
          "name": "amount",
          "type": "uint256"
        }
      ],
      "name": "transferFrom",
      "outputs": [
        {
          "internalType": "bool",
          "name": "",
          "type": "bool"
        }
      ],
      "stateMutability": "nonpayable",
      "type": "function"
    },
    {
      "inputs": [
        {
          "internalType": "address",
          "name": "newOwner",
          "type": "address"
        }
      ],
      "name": "transferOwnership",
      "outputs": [],
      "stateMutability": "nonpayable",
      "type": "function"
    },
    {
      "inputs": [],
      "name": "unpause",
      "outputs": [],
      "stateMutability": "nonpayable",
      "type": "function"
    }
  ],
  "bytecode": "0x6101406040523480156200001257600080fd5b506040518060400160405280600a81526020017f4261736b6574436f696e00000000000000000000000000000000000000000000815250806040518060400160405280600181526020017f31000000000000000000000000000000000000000000000000000000000000008152506040518060400160405280600a81526020017f4261736b6574436f696e000000000000000000000000000000000000000000008152506040518060400160405280600481526020017f42534b540000000000000000000000000000000000000000000000000000000081525081600390805190602001906200010492919062000321565b5080600490805190602001906200011d92919062000321565b50505062000140620001346200021760201b60201c565b6200021f60201b60201c565b6000600960146101000a81548160ff02191690831515021790555060008280519060200120905060008280519060200120905060007f8b73c3c69bb8fe3d512ecc4cf759cc79239f7b179b0ffacaa9a75d522b39400f90508260e081815250508161010081815250504660a08181525050620001c4818484620002e560201b60201c565b608081815250503073ffffffffffffffffffffffffffffffffffffffff1660c08173ffffffffffffffffffffffffffffffffffffffff1660601b815250508061012081815250505050505050506200050e565b600033905090565b6000600960009054906101000a900473ffffffffffffffffffffffffffffffffffffffff16905081600960006101000a81548173ffffffffffffffffffffffffffffffffffffffff021916908373ffffffffffffffffffffffffffffffffffffffff1602179055508173ffffffffffffffffffffffffffffffffffffffff168173ffffffffffffffffffffffffffffffffffffffff167f8be0079c531659141344cd1fd0a4f28419497f9722a3daafe3b4186f6b6457e060405160405180910390a35050565b600083838346306040516020016200030295949392919062000404565b6040516020818303038152906040528051906020012090509392505050565b8280546200032f90620004a9565b90600052602060002090601f0160209004810192826200035357600085556200039f565b82601f106200036e57805160ff19168380011785556200039f565b828001600101855582156200039f579182015b828111156200039e57825182559160200191906001019062000381565b5b509050620003ae9190620003b2565b5090565b5b80821115620003cd576000816000905550600101620003b3565b5090565b620003dc8162000461565b82525050565b620003ed8162000475565b82525050565b620003fe816200049f565b82525050565b600060a0820190506200041b6000830188620003e2565b6200042a6020830187620003e2565b620004396040830186620003e2565b620004486060830185620003f3565b620004576080830184620003d1565b9695505050505050565b60006200046e826200047f565b9050919050565b6000819050919050565b600073ffffffffffffffffffffffffffffffffffffffff82169050919050565b6000819050919050565b60006002820490506001821680620004c257607f821691505b60208210811415620004d957620004d8620004df565b5b50919050565b7f4e487b7100000000000000000000000000000000000000000000000000000000600052602260045260246000fd5b60805160a05160c05160601c60e051610100516101205161358062000561600039600061140401526000611446015260006114250152600061135a015260006113b0015260006113d901526135806000f3fe608060405234801561001057600080fd5b506004361061018e5760003560e01c8063715018a6116100de5780639711715a11610097578063a9059cbb11610071578063a9059cbb14610461578063d505accf14610491578063dd62ed3e146104ad578063f2fde38b146104dd5761018e565b80639711715a146103f7578063981b24d014610401578063a457c2d7146104315761018e565b8063715018a61461035b57806379cc6790146103655780637ecebe00146103815780638456cb59146103b15780638da5cb5b146103bb57806395d89b41146103d95761018e565b8063395093511161014b57806342966c681161012557806342966c68146102c15780634ee2cd7e146102dd5780635c975abb1461030d57806370a082311461032b5761018e565b8063395093511461026b5780633f4ba83a1461029b57806340c10f19146102a55761018e565b806306fdde0314610193578063095ea7b3146101b157806318160ddd146101e157806323b872dd146101ff578063313ce5671461022f5780633644e5151461024d575b600080fd5b61019b6104f9565b6040516101a891906129d4565b60405180910390f35b6101cb60048036038101906101c69190612426565b61058b565b6040516101d891906128a5565b60405180910390f35b6101e96105ae565b6040516101f69190612cb6565b60405180910390f35b61021960048036038101906102149190612331565b6105b8565b60405161022691906128a5565b60405180910390f35b6102376105e7565b6040516102449190612cd1565b60405180910390f35b6102556105f0565b60405161026291906128c0565b60405180910390f35b61028560048036038101906102809190612426565b6105ff565b60405161029291906128a5565b60405180910390f35b6102a3610636565b005b6102bf60048036038101906102ba9190612426565b6106bc565b005b6102db60048036038101906102d69190612466565b610746565b005b6102f760048036038101906102f29190612426565b61075a565b6040516103049190612cb6565b60405180910390f35b6103156107ca565b60405161032291906128a5565b60405180910390f35b610345600480360381019061034091906122c4565b6107e1565b6040516103529190612cb6565b60405180910390f35b610363610829565b005b61037f600480360381019061037a9190612426565b6108b1565b005b61039b600480360381019061039691906122c4565b6108d1565b6040516103a89190612cb6565b60405180910390f35b6103b9610921565b005b6103c36109a7565b6040516103d0919061288a565b60405180910390f35b6103e16109d1565b6040516103ee91906129d4565b60405180910390f35b6103ff610a63565b005b61041b60048036038101906104169190612466565b610aea565b6040516104289190612cb6565b60405180910390f35b61044b60048036038101906104469190612426565b610b1b565b60405161045891906128a5565b60405180910390f35b61047b60048036038101906104769190612426565b610b92565b60405161048891906128a5565b60405180910390f35b6104ab60048036038101906104a69190612384565b610bb5565b005b6104c760048036038101906104c291906122f1565b610cf7565b6040516104d49190612cb6565b60405180910390f35b6104f760048036038101906104f291906122c4565b610d7e565b005b60606003805461050890612e60565b80601f016020809104026020016040519081016040528092919081815260200182805461053490612e60565b80156105815780601f1061055657610100808354040283529160200191610581565b820191906000526020600020905b81548152906001019060200180831161056457829003601f168201915b5050505050905090565b600080610596610e76565b90506105a3818585610e7e565b600191505092915050565b6000600254905090565b6000806105c3610e76565b90506105d0858285611049565b6105db8585856110d5565b60019150509392505050565b60006012905090565b60006105fa611356565b905090565b60008061060a610e76565b905061062b81858561061c8589610cf7565b6106269190612d13565b610e7e565b600191505092915050565b61063e610e76565b73ffffffffffffffffffffffffffffffffffffffff1661065c6109a7565b73ffffffffffffffffffffffffffffffffffffffff16146106b2576040517f08c379a00000000000000000000000000000000000000000000000000000000081526004016106a990612bd6565b60405180910390fd5b6106ba611470565b565b6106c4610e76565b73ffffffffffffffffffffffffffffffffffffffff166106e26109a7565b73ffffffffffffffffffffffffffffffffffffffff1614610738576040517f08c379a000000000000000000000000000000000000000000000000000000000815260040161072f90612bd6565b60405180910390fd5b6107428282611512565b5050565b610757610751610e76565b82611672565b50565b60008060006107a784600560008873ffffffffffffffffffffffffffffffffffffffff1673ffffffffffffffffffffffffffffffffffffffff168152602001908152602001600020611849565b91509150816107be576107b9856107e1565b6107c0565b805b9250505092915050565b6000600960149054906101000a900460ff16905090565b60008060008373ffffffffffffffffffffffffffffffffffffffff1673ffffffffffffffffffffffffffffffffffffffff168152602001908152602001600020549050919050565b610831610e76565b73ffffffffffffffffffffffffffffffffffffffff1661084f6109a7565b73ffffffffffffffffffffffffffffffffffffffff16146108a5576040517f08c379a000000000000000000000000000000000000000000000000000000000815260040161089c90612bd6565b60405180910390fd5b6108af600061193f565b565b6108c3826108bd610e76565b83611049565b6108cd8282611672565b5050565b600061091a600a60008473ffffffffffffffffffffffffffffffffffffffff1673ffffffffffffffffffffffffffffffffffffffff168152602001908152602001600020611a05565b9050919050565b610929610e76565b73ffffffffffffffffffffffffffffffffffffffff166109476109a7565b73ffffffffffffffffffffffffffffffffffffffff161461099d576040517f08c379a000000000000000000000000000000000000000000000000000000000815260040161099490612bd6565b60405180910390fd5b6109a5611a13565b565b6000600960009054906101000a900473ffffffffffffffffffffffffffffffffffffffff16905090565b6060600480546109e090612e60565b80601f0160208091040260200160405190810160405280929190818152602001828054610a0c90612e60565b8015610a595780601f10610a2e57610100808354040283529160200191610a59565b820191906000526020600020905b815481529060010190602001808311610a3c57829003601f168201915b5050505050905090565b610a6b610e76565b73ffffffffffffffffffffffffffffffffffffffff16610a896109a7565b73ffffffffffffffffffffffffffffffffffffffff1614610adf576040517f08c379a0000000000000000000000000000000000000000000000000000000008152600401610ad690612bd6565b60405180910390fd5b610ae7611ab6565b50565b6000806000610afa846006611849565b9150915081610b1057610b0b6105ae565b610b12565b805b92505050919050565b600080610b26610e76565b90506000610b348286610cf7565b905083811015610b79576040517f08c379a0000000000000000000000000000000000000000000000000000000008152600401610b7090612c76565b60405180910390fd5b610b868286868403610e7e565b60019250505092915050565b600080610b9d610e76565b9050610baa8185856110d5565b600191505092915050565b83421115610bf8576040517f08c379a0000000000000000000000000000000000000000000000000000000008152600401610bef90612b16565b60405180910390fd5b60007f6e71edae12b1b97f4d1f60370fef10105fa2faae0126114a169c64845d6126c9888888610c278c611b0c565b89604051602001610c3d969594939291906128db565b6040516020818303038152906040528051906020012090506000610c6082611b6a565b90506000610c7082878787611b84565b90508973ffffffffffffffffffffffffffffffffffffffff168173ffffffffffffffffffffffffffffffffffffffff1614610ce0576040517f08c379a0000000000000000000000000000000000000000000000000000000008152600401610cd790612bb6565b60405180910390fd5b610ceb8a8a8a610e7e565b50505050505050505050565b6000600160008473ffffffffffffffffffffffffffffffffffffffff1673ffffffffffffffffffffffffffffffffffffffff16815260200190815260200160002060008373ffffffffffffffffffffffffffffffffffffffff1673ffffffffffffffffffffffffffffffffffffffff16815260200190815260200160002054905092915050565b610d86610e76565b73ffffffffffffffffffffffffffffffffffffffff16610da46109a7565b73ffffffffffffffffffffffffffffffffffffffff1614610dfa576040517f08c379a0000000000000000000000000000000000000000000000000000000008152600401610df190612bd6565b60405180910390fd5b600073ffffffffffffffffffffffffffffffffffffffff168173ffffffffffffffffffffffffffffffffffffffff161415610e6a576040517f08c379a0000000000000000000000000000000000000000000000000000000008152600401610e6190612ab6565b60405180910390fd5b610e738161193f565b50565b600033905090565b600073ffffffffffffffffffffffffffffffffffffffff168373ffffffffffffffffffffffffffffffffffffffff161415610eee576040517f08c379a0000000000000000000000000000000000000000000000000000000008152600401610ee590612c36565b60405180910390fd5b600073ffffffffffffffffffffffffffffffffffffffff168273ffffffffffffffffffffffffffffffffffffffff161415610f5e576040517f08c379a0000000000000000000000000000000000000000000000000000000008152600401610f5590612ad6565b60405180910390fd5b80600160008573ffffffffffffffffffffffffffffffffffffffff1673ffffffffffffffffffffffffffffffffffffffff16815260200190815260200160002060008473ffffffffffffffffffffffffffffffffffffffff1673ffffffffffffffffffffffffffffffffffffffff168152602001908152602001600020819055508173ffffffffffffffffffffffffffffffffffffffff168373ffffffffffffffffffffffffffffffffffffffff167f8c5be1e5ebec7d5bd14f71427d1e84f3dd0314c0f7b2291e5b200ac8c7c3b9258360405161103c9190612cb6565b60405180910390a3505050565b60006110558484610cf7565b90507fffffffffffffffffffffffffffffffffffffffffffffffffffffffffffffffff81146110cf57818110156110c1576040517f08c379a00000000000000000000000000000000000000000000000000000000081526004016110b890612af6565b60405180910390fd5b6110ce8484848403610e7e565b5b50505050565b600073ffffffffffffffffffffffffffffffffffffffff168373ffffffffffffffffffffffffffffffffffffffff161415611145576040517f08c379a000000000000000000000000000000000000000000000000000000000815260040161113c90612c16565b60405180910390fd5b600073ffffffffffffffffffffffffffffffffffffffff168273ffffffffffffffffffffffffffffffffffffffff1614156111b5576040517f08c379a00000000000000000000000000000000000000000000000000000000081526004016111ac90612a36565b60405180910390fd5b6111c0838383611baf565b60008060008573ffffffffffffffffffffffffffffffffffffffff1673ffffffffffffffffffffffffffffffffffffffff16815260200190815260200160002054905081811015611246576040517f08c379a000000000000000000000000000000000000000000000000000000000815260040161123d90612b36565b60405180910390fd5b8181036000808673ffffffffffffffffffffffffffffffffffffffff1673ffffffffffffffffffffffffffffffffffffffff16815260200190815260200160002081905550816000808573ffffffffffffffffffffffffffffffffffffffff1673ffffffffffffffffffffffffffffffffffffffff16815260200190815260200160002060008282546112d99190612d13565b925050819055508273ffffffffffffffffffffffffffffffffffffffff168473ffffffffffffffffffffffffffffffffffffffff167fddf252ad1be2c89b69c2b068fc378daa952ba7f163c4a11628f55a4df523b3ef8460405161133d9190612cb6565b60405180910390a3611350848484611c07565b50505050565b60007f000000000000000000000000000000000000000000000000000000000000000073ffffffffffffffffffffffffffffffffffffffff163073ffffffffffffffffffffffffffffffffffffffff161480156113d257507f000000000000000000000000000000000000000000000000000000000000000046145b156113ff577f0000000000000000000000000000000000000000000000000000000000000000905061146d565b61146a7f00000000000000000000000000000000000000000000000000000000000000007f00000000000000000000000000000000000000000000000000000000000000007f0000000000000000000000000000000000000000000000000000000000000000611c0c565b90505b90565b6114786107ca565b6114b7576040517f08c379a00000000000000000000000000000000000000000000000000000000081526004016114ae90612a56565b60405180910390fd5b6000600960146101000a81548160ff0219169083151502179055507f5db9ee0a495bf2e6ff9c91a7834c1ba4fdd244a5e8aa4e537bd38aeae4b073aa6114fb610e76565b604051611508919061288a565b60405180910390a1565b600073ffffffffffffffffffffffffffffffffffffffff168273ffffffffffffffffffffffffffffffffffffffff161415611582576040517f08c379a000000000000000000000000000000000000000000000000000000000815260040161157990612c96565b60405180910390fd5b61158e60008383611baf565b80600260008282546115a09190612d13565b92505081905550806000808473ffffffffffffffffffffffffffffffffffffffff1673ffffffffffffffffffffffffffffffffffffffff16815260200190815260200160002060008282546115f59190612d13565b925050819055508173ffffffffffffffffffffffffffffffffffffffff16600073ffffffffffffffffffffffffffffffffffffffff167fddf252ad1be2c89b69c2b068fc378daa952ba7f163c4a11628f55a4df523b3ef8360405161165a9190612cb6565b60405180910390a361166e60008383611c07565b5050565b600073ffffffffffffffffffffffffffffffffffffffff168273ffffffffffffffffffffffffffffffffffffffff1614156116e2576040517f08c379a00000000000000000000000000000000000000000000000000000000081526004016116d990612bf6565b60405180910390fd5b6116ee82600083611baf565b60008060008473ffffffffffffffffffffffffffffffffffffffff1673ffffffffffffffffffffffffffffffffffffffff16815260200190815260200160002054905081811015611774576040517f08c379a000000000000000000000000000000000000000000000000000000000815260040161176b90612a76565b60405180910390fd5b8181036000808573ffffffffffffffffffffffffffffffffffffffff1673ffffffffffffffffffffffffffffffffffffffff1681526020019081526020016000208190555081600260008282546117cb9190612d9a565b92505081905550600073ffffffffffffffffffffffffffffffffffffffff168373ffffffffffffffffffffffffffffffffffffffff167fddf252ad1be2c89b69c2b068fc378daa952ba7f163c4a11628f55a4df523b3ef846040516118309190612cb6565b60405180910390a361184483600084611c07565b505050565b6000806000841161188f576040517f08c379a000000000000000000000000000000000000000000000000000000000815260040161188690612c56565b60405180910390fd5b611897611c46565b8411156118d9576040517f08c379a00000000000000000000000000000000000000000000000000000000081526004016118d090612a16565b60405180910390fd5b60006118f18585600001611c5790919063ffffffff16565b9050836000018054905081141561190f576000809250925050611938565b600184600101828154811061192757611926612f58565b5b906000526020600020015492509250505b9250929050565b6000600960009054906101000a900473ffffffffffffffffffffffffffffffffffffffff16905081600960006101000a81548173ffffffffffffffffffffffffffffffffffffffff021916908373ffffffffffffffffffffffffffffffffffffffff1602179055508173ffffffffffffffffffffffffffffffffffffffff168173ffffffffffffffffffffffffffffffffffffffff167f8be0079c531659141344cd1fd0a4f28419497f9722a3daafe3b4186f6b6457e060405160405180910390a35050565b600081600001549050919050565b611a1b6107ca565b15611a5b576040517f08c379a0000000000000000000000000000000000000000000000000000000008152600401611a5290612b76565b60405180910390fd5b6001600960146101000a81548160ff0219169083151502179055507f62e78cea01bee320cd4e420270b5ea74000d11b0c9f74754ebdbfc544b05a258611a9f610e76565b604051611aac919061288a565b60405180910390a1565b6000611ac26008611d31565b6000611acc611c46565b90507f8030e83b04d87bef53480e26263266d6ca66863aa8506aca6f2559d18aa1cb6781604051611afd9190612cb6565b60405180910390a18091505090565b600080600a60008473ffffffffffffffffffffffffffffffffffffffff1673ffffffffffffffffffffffffffffffffffffffff1681526020019081526020016000209050611b5981611a05565b9150611b6481611d31565b50919050565b6000611b7d611b77611356565b83611d47565b9050919050565b6000806000611b9587878787611d7a565b91509150611ba281611e87565b8192505050949350505050565b611bb76107ca565b15611bf7576040517f08c379a0000000000000000000000000000000000000000000000000000000008152600401611bee90612b76565b60405180910390fd5b611c0283838361205c565b505050565b505050565b60008383834630604051602001611c2795949392919061293c565b6040516020818303038152906040528051906020012090509392505050565b6000611c526008611a05565b905090565b60008083805490501415611c6e5760009050611d2b565b600080848054905090505b80821015611cd2576000611c8d8383612116565b905084868281548110611ca357611ca2612f58565b5b90600052602060002001541115611cbc57809150611ccc565b600181611cc99190612d13565b92505b50611c79565b600082118015611d0a57508385600184611cec9190612d9a565b81548110611cfd57611cfc612f58565b5b9060005260206000200154145b15611d2557600182611d1c9190612d9a565b92505050611d2b565b81925050505b92915050565b6001816000016000828254019250508190555050565b60008282604051602001611d5c929190612853565b60405160208183030381529060405280519060200120905092915050565b6000807f7fffffffffffffffffffffffffffffff5d576e7357a4501ddfe92f46681b20a08360001c1115611db5576000600391509150611e7e565b601b8560ff1614158015611dcd5750601c8560ff1614155b15611ddf576000600491509150611e7e565b600060018787878760405160008152602001604052604051611e04949392919061298f565b6020604051602081039080840390855afa158015611e26573d6000803e3d6000fd5b505050602060405103519050600073ffffffffffffffffffffffffffffffffffffffff168173ffffffffffffffffffffffffffffffffffffffff161415611e7557600060019250925050611e7e565b80600092509250505b94509492505050565b60006004811115611e9b57611e9a612efa565b5b816004811115611eae57611ead612efa565b5b1415611eb957612059565b60016004811115611ecd57611ecc612efa565b5b816004811115611ee057611edf612efa565b5b1415611f21576040517f08c379a0000000000000000000000000000000000000000000000000000000008152600401611f18906129f6565b60405180910390fd5b60026004811115611f3557611f34612efa565b5b816004811115611f4857611f47612efa565b5b1415611f89576040517f08c379a0000000000000000000000000000000000000000000000000000000008152600401611f8090612a96565b60405180910390fd5b60036004811115611f9d57611f9c612efa565b5b816004811115611fb057611faf612efa565b5b1415611ff1576040517f08c379a0000000000000000000000000000000000000000000000000000000008152600401611fe890612b56565b60405180910390fd5b60048081111561200457612003612efa565b5b81600481111561201757612016612efa565b5b1415612058576040517f08c379a000000000000000000000000000000000000000000000000000000000815260040161204f90612b96565b60405180910390fd5b5b50565b61206783838361213c565b600073ffffffffffffffffffffffffffffffffffffffff168373ffffffffffffffffffffffffffffffffffffffff1614156120b2576120a582612141565b6120ad612194565b612111565b600073ffffffffffffffffffffffffffffffffffffffff168273ffffffffffffffffffffffffffffffffffffffff1614156120fd576120f083612141565b6120f8612194565b612110565b61210683612141565b61210f82612141565b5b5b505050565b600060028284186121279190612d69565b8284166121349190612d13565b905092915050565b505050565b612191600560008373ffffffffffffffffffffffffffffffffffffffff1673ffffffffffffffffffffffffffffffffffffffff16815260200190815260200160002061218c836107e1565b6121a8565b50565b6121a660066121a16105ae565b6121a8565b565b60006121b2611c46565b9050806121c184600001612223565b101561221e5782600001819080600181540180825580915050600190039060005260206000200160009091909190915055826001018290806001815401808255809150506001900390600052602060002001600090919091909150555b505050565b6000808280549050141561223a576000905061226b565b816001838054905061224c9190612d9a565b8154811061225d5761225c612f58565b5b906000526020600020015490505b919050565b60008135905061227f816134ee565b92915050565b60008135905061229481613505565b92915050565b6000813590506122a98161351c565b92915050565b6000813590506122be81613533565b92915050565b6000602082840312156122da576122d9612f87565b5b60006122e884828501612270565b91505092915050565b6000806040838503121561230857612307612f87565b5b600061231685828601612270565b925050602061232785828601612270565b9150509250929050565b60008060006060848603121561234a57612349612f87565b5b600061235886828701612270565b935050602061236986828701612270565b925050604061237a8682870161229a565b9150509250925092565b600080600080600080600060e0888a0312156123a3576123a2612f87565b5b60006123b18a828b01612270565b97505060206123c28a828b01612270565b96505060406123d38a828b0161229a565b95505060606123e48a828b0161229a565b94505060806123f58a828b016122af565b93505060a06124068a828b01612285565b92505060c06124178a828b01612285565b91505092959891949750929550565b6000806040838503121561243d5761243c612f87565b5b600061244b85828601612270565b925050602061245c8582860161229a565b9150509250929050565b60006020828403121561247c5761247b612f87565b5b600061248a8482850161229a565b91505092915050565b61249c81612dce565b82525050565b6124ab81612de0565b82525050565b6124ba81612dec565b82525050565b6124d16124cc82612dec565b612e92565b82525050565b60006124e282612cec565b6124ec8185612cf7565b93506124fc818560208601612e2d565b61250581612f8c565b840191505092915050565b600061251d601883612cf7565b915061252882612f9d565b602082019050919050565b6000612540601d83612cf7565b915061254b82612fc6565b602082019050919050565b6000612563602383612cf7565b915061256e82612fef565b604082019050919050565b6000612586601483612cf7565b91506125918261303e565b602082019050919050565b60006125a9602283612cf7565b91506125b482613067565b604082019050919050565b60006125cc601f83612cf7565b91506125d7826130b6565b602082019050919050565b60006125ef602683612cf7565b91506125fa826130df565b604082019050919050565b6000612612602283612cf7565b915061261d8261312e565b604082019050919050565b6000612635600283612d08565b91506126408261317d565b600282019050919050565b6000612658601d83612cf7565b9150612663826131a6565b602082019050919050565b600061267b601d83612cf7565b9150612686826131cf565b602082019050919050565b600061269e602683612cf7565b91506126a9826131f8565b604082019050919050565b60006126c1602283612cf7565b91506126cc82613247565b604082019050919050565b60006126e4601083612cf7565b91506126ef82613296565b602082019050919050565b6000612707602283612cf7565b9150612712826132bf565b604082019050919050565b600061272a601e83612cf7565b91506127358261330e565b602082019050919050565b600061274d602083612cf7565b915061275882613337565b602082019050919050565b6000612770602183612cf7565b915061277b82613360565b604082019050919050565b6000612793602583612cf7565b915061279e826133af565b604082019050919050565b60006127b6602483612cf7565b91506127c1826133fe565b604082019050919050565b60006127d9601683612cf7565b91506127e48261344d565b602082019050919050565b60006127fc602583612cf7565b915061280782613476565b604082019050919050565b600061281f601f83612cf7565b915061282a826134c5565b602082019050919050565b61283e81612e16565b82525050565b61284d81612e20565b82525050565b600061285e82612628565b915061286a82856124c0565b60208201915061287a82846124c0565b6020820191508190509392505050565b600060208201905061289f6000830184612493565b92915050565b60006020820190506128ba60008301846124a2565b92915050565b60006020820190506128d560008301846124b1565b92915050565b600060c0820190506128f060008301896124b1565b6128fd6020830188612493565b61290a6040830187612493565b6129176060830186612835565b6129246080830185612835565b61293160a0830184612835565b979650505050505050565b600060a08201905061295160008301886124b1565b61295e60208301876124b1565b61296b60408301866124b1565b6129786060830185612835565b6129856080830184612493565b9695505050505050565b60006080820190506129a460008301876124b1565b6129b16020830186612844565b6129be60408301856124b1565b6129cb60608301846124b1565b95945050505050565b600060208201905081810360008301526129ee81846124d7565b905092915050565b60006020820190508181036000830152612a0f81612510565b9050919050565b60006020820190508181036000830152612a2f81612533565b9050919050565b60006020820190508181036000830152612a4f81612556565b9050919050565b60006020820190508181036000830152612a6f81612579565b9050919050565b60006020820190508181036000830152612a8f8161259c565b9050919050565b60006020820190508181036000830152612aaf816125bf565b9050919050565b60006020820190508181036000830152612acf816125e2565b9050919050565b60006020820190508181036000830152612aef81612605565b9050919050565b60006020820190508181036000830152612b0f8161264b565b9050919050565b60006020820190508181036000830152612b2f8161266e565b9050919050565b60006020820190508181036000830152612b4f81612691565b9050919050565b60006020820190508181036000830152612b6f816126b4565b9050919050565b60006020820190508181036000830152612b8f816126d7565b9050919050565b60006020820190508181036000830152612baf816126fa565b9050919050565b60006020820190508181036000830152612bcf8161271d565b9050919050565b60006020820190508181036000830152612bef81612740565b9050919050565b60006020820190508181036000830152612c0f81612763565b9050919050565b60006020820190508181036000830152612c2f81612786565b9050919050565b60006020820190508181036000830152612c4f816127a9565b9050919050565b60006020820190508181036000830152612c6f816127cc565b9050919050565b60006020820190508181036000830152612c8f816127ef565b9050919050565b60006020820190508181036000830152612caf81612812565b9050919050565b6000602082019050612ccb6000830184612835565b92915050565b6000602082019050612ce66000830184612844565b92915050565b600081519050919050565b600082825260208201905092915050565b600081905092915050565b6000612d1e82612e16565b9150612d2983612e16565b9250827fffffffffffffffffffffffffffffffffffffffffffffffffffffffffffffffff03821115612d5e57612d5d612e9c565b5b828201905092915050565b6000612d7482612e16565b9150612d7f83612e16565b925082612d8f57612d8e612ecb565b5b828204905092915050565b6000612da582612e16565b9150612db083612e16565b925082821015612dc357612dc2612e9c565b5b828203905092915050565b6000612dd982612df6565b9050919050565b60008115159050919050565b6000819050919050565b600073ffffffffffffffffffffffffffffffffffffffff82169050919050565b6000819050919050565b600060ff82169050919050565b60005b83811015612e4b578082015181840152602081019050612e30565b83811115612e5a576000848401525b50505050565b60006002820490506001821680612e7857607f821691505b60208210811415612e8c57612e8b612f29565b5b50919050565b6000819050919050565b7f4e487b7100000000000000000000000000000000000000000000000000000000600052601160045260246000fd5b7f4e487b7100000000000000000000000000000000000000000000000000000000600052601260045260246000fd5b7f4e487b7100000000000000000000000000000000000000000000000000000000600052602160045260246000fd5b7f4e487b7100000000000000000000000000000000000000000000000000000000600052602260045260246000fd5b7f4e487b7100000000000000000000000000000000000000000000000000000000600052603260045260246000fd5b600080fd5b6000601f19601f8301169050919050565b7f45434453413a20696e76616c6964207369676e61747572650000000000000000600082015250565b7f4552433230536e617073686f743a206e6f6e6578697374656e74206964000000600082015250565b7f45524332303a207472616e7366657220746f20746865207a65726f206164647260008201527f6573730000000000000000000000000000000000000000000000000000000000602082015250565b7f5061757361626c653a206e6f7420706175736564000000000000000000000000600082015250565b7f45524332303a206275726e20616d6f756e7420657863656564732062616c616e60008201527f6365000000000000000000000000000000000000000000000000000000000000602082015250565b7f45434453413a20696e76616c6964207369676e6174757265206c656e67746800600082015250565b7f4f776e61626c653a206e6577206f776e657220697320746865207a65726f206160008201527f6464726573730000000000000000000000000000000000000000000000000000602082015250565b7f45524332303a20617070726f766520746f20746865207a65726f20616464726560008201527f7373000000000000000000000000000000000000000000000000000000000000602082015250565b7f1901000000000000000000000000000000000000000000000000000000000000600082015250565b7f45524332303a20696e73756666696369656e7420616c6c6f77616e6365000000600082015250565b7f45524332305065726d69743a206578706972656420646561646c696e65000000600082015250565b7f45524332303a207472616e7366657220616d6f756e742065786365656473206260008201527f616c616e63650000000000000000000000000000000000000000000000000000602082015250565b7f45434453413a20696e76616c6964207369676e6174757265202773272076616c60008201527f7565000000000000000000000000000000000000000000000000000000000000602082015250565b7f5061757361626c653a2070617573656400000000000000000000000000000000600082015250565b7f45434453413a20696e76616c6964207369676e6174757265202776272076616c60008201527f7565000000000000000000000000000000000000000000000000000000000000602082015250565b7f45524332305065726d69743a20696e76616c6964207369676e61747572650000600082015250565b7f4f776e61626c653a2063616c6c6572206973206e6f7420746865206f776e6572600082015250565b7f45524332303a206275726e2066726f6d20746865207a65726f2061646472657360008201527f7300000000000000000000000000000000000000000000000000000000000000602082015250565b7f45524332303a207472616e736665722066726f6d20746865207a65726f20616460008201527f6472657373000000000000000000000000000000000000000000000000000000602082015250565b7f45524332303a20617070726f76652066726f6d20746865207a65726f2061646460008201527f7265737300000000000000000000000000000000000000000000000000000000602082015250565b7f4552433230536e617073686f743a206964206973203000000000000000000000600082015250565b7f45524332303a2064656372656173656420616c6c6f77616e63652062656c6f7760008201527f207a65726f000000000000000000000000000000000000000000000000000000602082015250565b7f45524332303a206d696e7420746f20746865207a65726f206164647265737300600082015250565b6134f781612dce565b811461350257600080fd5b50565b61350e81612dec565b811461351957600080fd5b50565b61352581612e16565b811461353057600080fd5b50565b61353c81612e20565b811461354757600080fd5b5056fea264697066735822122063ca1ba19bf0ae9c6b2803803770205956e51b0a6b008a66f27babbbcd1cb29264736f6c63430008050033",
  "linkReferences": {},
  "deployedLinkReferences": {}
}