{
  "_format": "hh-sol-artifact-1",
  "contractName": "BasketCoinNFT",
  "sourceName": "contracts/BasketCoinNFT.sol",
  "abi": [
    {
      "inputs": [],
      "stateMutability": "nonpayable",
      "type": "constructor"
    },
    {
      "anonymous": false,
      "inputs": [
        {
          "indexed": true,
          "internalType": "address",
          "name": "owner",
          "type": "address"
        },
        {
          "indexed": true,
          "internalType": "address",
          "name": "approved",
          "type": "address"
        },
        {
          "indexed": true,
          "internalType": "uint256",
          "name": "tokenId",
          "type": "uint256"
        }
      ],
      "name": "Approval",
      "type": "event"
    },
    {
      "anonymous": false,
      "inputs": [
        {
          "indexed": true,
          "internalType": "address",
          "name": "owner",
          "type": "address"
        },
        {
          "indexed": true,
          "internalType": "address",
          "name": "operator",
          "type": "address"
        },
        {
          "indexed": false,
          "internalType": "bool",
          "name": "approved",
          "type": "bool"
        }
      ],
      "name": "ApprovalForAll",
      "type": "event"
    },
    {
      "anonymous": false,
      "inputs": [
        {
          "indexed": true,
          "internalType": "address",
          "name": "previousOwner",
          "type": "address"
        },
        {
          "indexed": true,
          "internalType": "address",
          "name": "newOwner",
          "type": "address"
        }
      ],
      "name": "OwnershipTransferred",
      "type": "event"
    },
    {
      "anonymous": false,
      "inputs": [
        {
          "indexed": false,
          "internalType": "address",
          "name": "account",
          "type": "address"
        }
      ],
      "name": "Paused",
      "type": "event"
    },
    {
      "anonymous": false,
      "inputs": [
        {
          "indexed": true,
          "internalType": "address",
          "name": "from",
          "type": "address"
        },
        {
          "indexed": true,
          "internalType": "address",
          "name": "to",
          "type": "address"
        },
        {
          "indexed": true,
          "internalType": "uint256",
          "name": "tokenId",
          "type": "uint256"
        }
      ],
      "name": "Transfer",
      "type": "event"
    },
    {
      "anonymous": false,
      "inputs": [
        {
          "indexed": false,
          "internalType": "address",
          "name": "account",
          "type": "address"
        }
      ],
      "name": "Unpaused",
      "type": "event"
    },
    {
      "inputs": [
        {
          "internalType": "address",
          "name": "to",
          "type": "address"
        },
        {
          "internalType": "uint256",
          "name": "tokenId",
          "type": "uint256"
        }
      ],
      "name": "approve",
      "outputs": [],
      "stateMutability": "nonpayable",
      "type": "function"
    },
    {
      "inputs": [
        {
          "internalType": "address",
          "name": "owner",
          "type": "address"
        }
      ],
      "name": "balanceOf",
      "outputs": [
        {
          "internalType": "uint256",
          "name": "",
          "type": "uint256"
        }
      ],
      "stateMutability": "view",
      "type": "function"
    },
    {
      "inputs": [
        {
          "internalType": "uint256",
          "name": "tokenId",
          "type": "uint256"
        }
      ],
      "name": "burn",
      "outputs": [],
      "stateMutability": "nonpayable",
      "type": "function"
    },
    {
      "inputs": [
        {
          "internalType": "uint256",
          "name": "tokenId",
          "type": "uint256"
        }
      ],
      "name": "getApproved",
      "outputs": [
        {
          "internalType": "address",
          "name": "",
          "type": "address"
        }
      ],
      "stateMutability": "view",
      "type": "function"
    },
    {
      "inputs": [
        {
          "internalType": "address",
          "name": "owner",
          "type": "address"
        },
        {
          "internalType": "address",
          "name": "operator",
          "type": "address"
        }
      ],
      "name": "isApprovedForAll",
      "outputs": [
        {
          "internalType": "bool",
          "name": "",
          "type": "bool"
        }
      ],
      "stateMutability": "view",
      "type": "function"
    },
    {
      "inputs": [],
      "name": "name",
      "outputs": [
        {
          "internalType": "string",
          "name": "",
          "type": "string"
        }
      ],
      "stateMutability": "view",
      "type": "function"
    },
    {
      "inputs": [],
      "name": "owner",
      "outputs": [
        {
          "internalType": "address",
          "name": "",
          "type": "address"
        }
      ],
      "stateMutability": "view",
      "type": "function"
    },
    {
      "inputs": [
        {
          "internalType": "uint256",
          "name": "tokenId",
          "type": "uint256"
        }
      ],
      "name": "ownerOf",
      "outputs": [
        {
          "internalType": "address",
          "name": "",
          "type": "address"
        }
      ],
      "stateMutability": "view",
      "type": "function"
    },
    {
      "inputs": [],
      "name": "pause",
      "outputs": [],
      "stateMutability": "nonpayable",
      "type": "function"
    },
    {
      "inputs": [],
      "name": "paused",
      "outputs": [
        {
          "internalType": "bool",
          "name": "",
          "type": "bool"
        }
      ],
      "stateMutability": "view",
      "type": "function"
    },
    {
      "inputs": [],
      "name": "renounceOwnership",
      "outputs": [],
      "stateMutability": "nonpayable",
      "type": "function"
    },
    {
      "inputs": [
        {
          "internalType": "address",
          "name": "to",
          "type": "address"
        },
        {
          "internalType": "string",
          "name": "uri",
          "type": "string"
        }
      ],
      "name": "safeMint",
      "outputs": [],
      "stateMutability": "nonpayable",
      "type": "function"
    },
    {
      "inputs": [
        {
          "internalType": "address",
          "name": "from",
          "type": "address"
        },
        {
          "internalType": "address",
          "name": "to",
          "type": "address"
        },
        {
          "internalType": "uint256",
          "name": "tokenId",
          "type": "uint256"
        }
      ],
      "name": "safeTransferFrom",
      "outputs": [],
      "stateMutability": "nonpayable",
      "type": "function"
    },
    {
      "inputs": [
        {
          "internalType": "address",
          "name": "from",
          "type": "address"
        },
        {
          "internalType": "address",
          "name": "to",
          "type": "address"
        },
        {
          "internalType": "uint256",
          "name": "tokenId",
          "type": "uint256"
        },
        {
          "internalType": "bytes",
          "name": "_data",
          "type": "bytes"
        }
      ],
      "name": "safeTransferFrom",
      "outputs": [],
      "stateMutability": "nonpayable",
      "type": "function"
    },
    {
      "inputs": [
        {
          "internalType": "address",
          "name": "operator",
          "type": "address"
        },
        {
          "internalType": "bool",
          "name": "approved",
          "type": "bool"
        }
      ],
      "name": "setApprovalForAll",
      "outputs": [],
      "stateMutability": "nonpayable",
      "type": "function"
    },
    {
      "inputs": [
        {
          "internalType": "bytes4",
          "name": "interfaceId",
          "type": "bytes4"
        }
      ],
      "name": "supportsInterface",
      "outputs": [
        {
          "internalType": "bool",
          "name": "",
          "type": "bool"
        }
      ],
      "stateMutability": "view",
      "type": "function"
    },
    {
      "inputs": [],
      "name": "symbol",
      "outputs": [
        {
          "internalType": "string",
          "name": "",
          "type": "string"
        }
      ],
      "stateMutability": "view",
      "type": "function"
    },
    {
      "inputs": [
        {
          "internalType": "uint256",
          "name": "index",
          "type": "uint256"
        }
      ],
      "name": "tokenByIndex",
      "outputs": [
        {
          "internalType": "uint256",
          "name": "",
          "type": "uint256"
        }
      ],
      "stateMutability": "view",
      "type": "function"
    },
    {
      "inputs": [
        {
          "internalType": "address",
          "name": "owner",
          "type": "address"
        },
        {
          "internalType": "uint256",
          "name": "index",
          "type": "uint256"
        }
      ],
      "name": "tokenOfOwnerByIndex",
      "outputs": [
        {
          "internalType": "uint256",
          "name": "",
          "type": "uint256"
        }
      ],
      "stateMutability": "view",
      "type": "function"
    },
    {
      "inputs": [
        {
          "internalType": "uint256",
          "name": "tokenId",
          "type": "uint256"
        }
      ],
      "name": "tokenURI",
      "outputs": [
        {
          "internalType": "string",
          "name": "",
          "type": "string"
        }
      ],
      "stateMutability": "view",
      "type": "function"
    },
    {
      "inputs": [],
      "name": "totalSupply",
      "outputs": [
        {
          "internalType": "uint256",
          "name": "",
          "type": "uint256"
        }
      ],
      "stateMutability": "view",
      "type": "function"
    },
    {
      "inputs": [
        {
          "internalType": "address",
          "name": "from",
          "type": "address"
        },
        {
          "internalType": "address",
          "name": "to",
          "type": "address"
        },
        {
          "internalType": "uint256",
          "name": "tokenId",
          "type": "uint256"
        }
      ],
      "name": "transferFrom",
      "outputs": [],
      "stateMutability": "nonpayable",
      "type": "function"
    },
    {
      "inputs": [
        {
          "internalType": "address",
          "name": "newOwner",
          "type": "address"
        }
      ],
      "name": "transferOwnership",
      "outputs": [],
      "stateMutability": "nonpayable",
      "type": "function"
    },
    {
      "inputs": [],
      "name": "unpause",
      "outputs": [],
      "stateMutability": "nonpayable",
      "type": "function"
    }
  ],
  "bytecode": "0x60806040523480156200001157600080fd5b506040518060400160405280600d81526020017f4261736b6574436f696e4e4654000000000000000000000000000000000000008152506040518060400160405280600581526020017f42434e4654000000000000000000000000000000000000000000000000000000815250816000908051906020019062000096929190620001c1565b508060019080519060200190620000af929190620001c1565b5050506000600b60006101000a81548160ff021916908315150217905550620000ed620000e1620000f360201b60201c565b620000fb60201b60201c565b620002d6565b600033905090565b6000600b60019054906101000a900473ffffffffffffffffffffffffffffffffffffffff16905081600b60016101000a81548173ffffffffffffffffffffffffffffffffffffffff021916908373ffffffffffffffffffffffffffffffffffffffff1602179055508173ffffffffffffffffffffffffffffffffffffffff168173ffffffffffffffffffffffffffffffffffffffff167f8be0079c531659141344cd1fd0a4f28419497f9722a3daafe3b4186f6b6457e060405160405180910390a35050565b828054620001cf9062000271565b90600052602060002090601f016020900481019282620001f357600085556200023f565b82601f106200020e57805160ff19168380011785556200023f565b828001600101855582156200023f579182015b828111156200023e57825182559160200191906001019062000221565b5b5090506200024e919062000252565b5090565b5b808211156200026d57600081600090555060010162000253565b5090565b600060028204905060018216806200028a57607f821691505b60208210811415620002a157620002a0620002a7565b5b50919050565b7f4e487b7100000000000000000000000000000000000000000000000000000000600052602260045260246000fd5b613f0780620002e66000396000f3fe608060405234801561001057600080fd5b50600436106101585760003560e01c80636352211e116100c3578063a22cb4651161007c578063a22cb465146103a1578063b88d4fde146103bd578063c87b56dd146103d9578063d204c45e14610409578063e985e9c514610425578063f2fde38b1461045557610158565b80636352211e146102f157806370a0823114610321578063715018a6146103515780638456cb591461035b5780638da5cb5b1461036557806395d89b411461038357610158565b80632f745c59116101155780632f745c59146102315780633f4ba83a1461026157806342842e0e1461026b57806342966c68146102875780634f6ccce7146102a35780635c975abb146102d357610158565b806301ffc9a71461015d57806306fdde031461018d578063081812fc146101ab578063095ea7b3146101db57806318160ddd146101f757806323b872dd14610215575b600080fd5b61017760048036038101906101729190612baa565b610471565b60405161018491906130b1565b60405180910390f35b610195610483565b6040516101a291906130cc565b60405180910390f35b6101c560048036038101906101c09190612c04565b610515565b6040516101d2919061304a565b60405180910390f35b6101f560048036038101906101f09190612b6a565b61059a565b005b6101ff6106b2565b60405161020c91906133ce565b60405180910390f35b61022f600480360381019061022a91906129f8565b6106bf565b005b61024b60048036038101906102469190612b6a565b61071f565b60405161025891906133ce565b60405180910390f35b6102696107c4565b005b610285600480360381019061028091906129f8565b61084a565b005b6102a1600480360381019061029c9190612c04565b61086a565b005b6102bd60048036038101906102b89190612c04565b6108c6565b6040516102ca91906133ce565b60405180910390f35b6102db610937565b6040516102e891906130b1565b60405180910390f35b61030b60048036038101906103069190612c04565b61094e565b604051610318919061304a565b60405180910390f35b61033b6004803603810190610336919061298b565b610a00565b60405161034891906133ce565b60405180910390f35b610359610ab8565b005b610363610b40565b005b61036d610bc6565b60405161037a919061304a565b60405180910390f35b61038b610bf0565b60405161039891906130cc565b60405180910390f35b6103bb60048036038101906103b69190612ace565b610c82565b005b6103d760048036038101906103d29190612a4b565b610c98565b005b6103f360048036038101906103ee9190612c04565b610cfa565b60405161040091906130cc565b60405180910390f35b610423600480360381019061041e9190612b0e565b610d0c565b005b61043f600480360381019061043a91906129b8565b610db9565b60405161044c91906130b1565b60405180910390f35b61046f600480360381019061046a919061298b565b610e4d565b005b600061047c82610f45565b9050919050565b60606000805461049290613624565b80601f01602080910402602001604051908101604052809291908181526020018280546104be90613624565b801561050b5780601f106104e05761010080835404028352916020019161050b565b820191906000526020600020905b8154815290600101906020018083116104ee57829003601f168201915b5050505050905090565b600061052082610fbf565b61055f576040517f08c379a0000000000000000000000000000000000000000000000000000000008152600401610556906132ee565b60405180910390fd5b6004600083815260200190815260200160002060009054906101000a900473ffffffffffffffffffffffffffffffffffffffff169050919050565b60006105a58261094e565b90508073ffffffffffffffffffffffffffffffffffffffff168373ffffffffffffffffffffffffffffffffffffffff161415610616576040517f08c379a000000000000000000000000000000000000000000000000000000000815260040161060d9061334e565b60405180910390fd5b8073ffffffffffffffffffffffffffffffffffffffff1661063561102b565b73ffffffffffffffffffffffffffffffffffffffff16148061066457506106638161065e61102b565b610db9565b5b6106a3576040517f08c379a000000000000000000000000000000000000000000000000000000000815260040161069a9061322e565b60405180910390fd5b6106ad8383611033565b505050565b6000600880549050905090565b6106d06106ca61102b565b826110ec565b61070f576040517f08c379a00000000000000000000000000000000000000000000000000000000081526004016107069061336e565b60405180910390fd5b61071a8383836111ca565b505050565b600061072a83610a00565b821061076b576040517f08c379a00000000000000000000000000000000000000000000000000000000081526004016107629061310e565b60405180910390fd5b600660008473ffffffffffffffffffffffffffffffffffffffff1673ffffffffffffffffffffffffffffffffffffffff168152602001908152602001600020600083815260200190815260200160002054905092915050565b6107cc61102b565b73ffffffffffffffffffffffffffffffffffffffff166107ea610bc6565b73ffffffffffffffffffffffffffffffffffffffff1614610840576040517f08c379a00000000000000000000000000000000000000000000000000000000081526004016108379061330e565b60405180910390fd5b610848611431565b565b61086583838360405180602001604052806000815250610c98565b505050565b61087b61087561102b565b826110ec565b6108ba576040517f08c379a00000000000000000000000000000000000000000000000000000000081526004016108b1906133ae565b60405180910390fd5b6108c3816114d3565b50565b60006108d06106b2565b8210610911576040517f08c379a00000000000000000000000000000000000000000000000000000000081526004016109089061338e565b60405180910390fd5b60088281548110610925576109246137bd565b5b90600052602060002001549050919050565b6000600b60009054906101000a900460ff16905090565b6000806002600084815260200190815260200160002060009054906101000a900473ffffffffffffffffffffffffffffffffffffffff169050600073ffffffffffffffffffffffffffffffffffffffff168173ffffffffffffffffffffffffffffffffffffffff1614156109f7576040517f08c379a00000000000000000000000000000000000000000000000000000000081526004016109ee9061326e565b60405180910390fd5b80915050919050565b60008073ffffffffffffffffffffffffffffffffffffffff168273ffffffffffffffffffffffffffffffffffffffff161415610a71576040517f08c379a0000000000000000000000000000000000000000000000000000000008152600401610a689061324e565b60405180910390fd5b600360008373ffffffffffffffffffffffffffffffffffffffff1673ffffffffffffffffffffffffffffffffffffffff168152602001908152602001600020549050919050565b610ac061102b565b73ffffffffffffffffffffffffffffffffffffffff16610ade610bc6565b73ffffffffffffffffffffffffffffffffffffffff1614610b34576040517f08c379a0000000000000000000000000000000000000000000000000000000008152600401610b2b9061330e565b60405180910390fd5b610b3e60006114df565b565b610b4861102b565b73ffffffffffffffffffffffffffffffffffffffff16610b66610bc6565b73ffffffffffffffffffffffffffffffffffffffff1614610bbc576040517f08c379a0000000000000000000000000000000000000000000000000000000008152600401610bb39061330e565b60405180910390fd5b610bc46115a5565b565b6000600b60019054906101000a900473ffffffffffffffffffffffffffffffffffffffff16905090565b606060018054610bff90613624565b80601f0160208091040260200160405190810160405280929190818152602001828054610c2b90613624565b8015610c785780601f10610c4d57610100808354040283529160200191610c78565b820191906000526020600020905b815481529060010190602001808311610c5b57829003601f168201915b5050505050905090565b610c94610c8d61102b565b8383611648565b5050565b610ca9610ca361102b565b836110ec565b610ce8576040517f08c379a0000000000000000000000000000000000000000000000000000000008152600401610cdf9061336e565b60405180910390fd5b610cf4848484846117b5565b50505050565b6060610d0582611811565b9050919050565b610d1461102b565b73ffffffffffffffffffffffffffffffffffffffff16610d32610bc6565b73ffffffffffffffffffffffffffffffffffffffff1614610d88576040517f08c379a0000000000000000000000000000000000000000000000000000000008152600401610d7f9061330e565b60405180910390fd5b6000610d94600c611963565b9050610da0600c611971565b610daa8382611987565b610db481836119a5565b505050565b6000600560008473ffffffffffffffffffffffffffffffffffffffff1673ffffffffffffffffffffffffffffffffffffffff16815260200190815260200160002060008373ffffffffffffffffffffffffffffffffffffffff1673ffffffffffffffffffffffffffffffffffffffff16815260200190815260200160002060009054906101000a900460ff16905092915050565b610e5561102b565b73ffffffffffffffffffffffffffffffffffffffff16610e73610bc6565b73ffffffffffffffffffffffffffffffffffffffff1614610ec9576040517f08c379a0000000000000000000000000000000000000000000000000000000008152600401610ec09061330e565b60405180910390fd5b600073ffffffffffffffffffffffffffffffffffffffff168173ffffffffffffffffffffffffffffffffffffffff161415610f39576040517f08c379a0000000000000000000000000000000000000000000000000000000008152600401610f309061314e565b60405180910390fd5b610f42816114df565b50565b60007f780e9d63000000000000000000000000000000000000000000000000000000007bffffffffffffffffffffffffffffffffffffffffffffffffffffffff1916827bffffffffffffffffffffffffffffffffffffffffffffffffffffffff19161480610fb85750610fb782611a19565b5b9050919050565b60008073ffffffffffffffffffffffffffffffffffffffff166002600084815260200190815260200160002060009054906101000a900473ffffffffffffffffffffffffffffffffffffffff1673ffffffffffffffffffffffffffffffffffffffff1614159050919050565b600033905090565b816004600083815260200190815260200160002060006101000a81548173ffffffffffffffffffffffffffffffffffffffff021916908373ffffffffffffffffffffffffffffffffffffffff160217905550808273ffffffffffffffffffffffffffffffffffffffff166110a68361094e565b73ffffffffffffffffffffffffffffffffffffffff167f8c5be1e5ebec7d5bd14f71427d1e84f3dd0314c0f7b2291e5b200ac8c7c3b92560405160405180910390a45050565b60006110f782610fbf565b611136576040517f08c379a000000000000000000000000000000000000000000000000000000000815260040161112d906131ee565b60405180910390fd5b60006111418361094e565b90508073ffffffffffffffffffffffffffffffffffffffff168473ffffffffffffffffffffffffffffffffffffffff16148061118357506111828185610db9565b5b806111c157508373ffffffffffffffffffffffffffffffffffffffff166111a984610515565b73ffffffffffffffffffffffffffffffffffffffff16145b91505092915050565b8273ffffffffffffffffffffffffffffffffffffffff166111ea8261094e565b73ffffffffffffffffffffffffffffffffffffffff1614611240576040517f08c379a00000000000000000000000000000000000000000000000000000000081526004016112379061316e565b60405180910390fd5b600073ffffffffffffffffffffffffffffffffffffffff168273ffffffffffffffffffffffffffffffffffffffff1614156112b0576040517f08c379a00000000000000000000000000000000000000000000000000000000081526004016112a7906131ae565b60405180910390fd5b6112bb838383611afb565b6112c6600082611033565b6001600360008573ffffffffffffffffffffffffffffffffffffffff1673ffffffffffffffffffffffffffffffffffffffff1681526020019081526020016000206000828254611316919061353a565b925050819055506001600360008473ffffffffffffffffffffffffffffffffffffffff1673ffffffffffffffffffffffffffffffffffffffff168152602001908152602001600020600082825461136d91906134b3565b92505081905550816002600083815260200190815260200160002060006101000a81548173ffffffffffffffffffffffffffffffffffffffff021916908373ffffffffffffffffffffffffffffffffffffffff160217905550808273ffffffffffffffffffffffffffffffffffffffff168473ffffffffffffffffffffffffffffffffffffffff167fddf252ad1be2c89b69c2b068fc378daa952ba7f163c4a11628f55a4df523b3ef60405160405180910390a461142c838383611b53565b505050565b611439610937565b611478576040517f08c379a000000000000000000000000000000000000000000000000000000000815260040161146f906130ee565b60405180910390fd5b6000600b60006101000a81548160ff0219169083151502179055507f5db9ee0a495bf2e6ff9c91a7834c1ba4fdd244a5e8aa4e537bd38aeae4b073aa6114bc61102b565b6040516114c9919061304a565b60405180910390a1565b6114dc81611b58565b50565b6000600b60019054906101000a900473ffffffffffffffffffffffffffffffffffffffff16905081600b60016101000a81548173ffffffffffffffffffffffffffffffffffffffff021916908373ffffffffffffffffffffffffffffffffffffffff1602179055508173ffffffffffffffffffffffffffffffffffffffff168173ffffffffffffffffffffffffffffffffffffffff167f8be0079c531659141344cd1fd0a4f28419497f9722a3daafe3b4186f6b6457e060405160405180910390a35050565b6115ad610937565b156115ed576040517f08c379a00000000000000000000000000000000000000000000000000000000081526004016115e49061320e565b60405180910390fd5b6001600b60006101000a81548160ff0219169083151502179055507f62e78cea01bee320cd4e420270b5ea74000d11b0c9f74754ebdbfc544b05a25861163161102b565b60405161163e919061304a565b60405180910390a1565b8173ffffffffffffffffffffffffffffffffffffffff168373ffffffffffffffffffffffffffffffffffffffff1614156116b7576040517f08c379a00000000000000000000000000000000000000000000000000000000081526004016116ae906131ce565b60405180910390fd5b80600560008573ffffffffffffffffffffffffffffffffffffffff1673ffffffffffffffffffffffffffffffffffffffff16815260200190815260200160002060008473ffffffffffffffffffffffffffffffffffffffff1673ffffffffffffffffffffffffffffffffffffffff16815260200190815260200160002060006101000a81548160ff0219169083151502179055508173ffffffffffffffffffffffffffffffffffffffff168373ffffffffffffffffffffffffffffffffffffffff167f17307eab39ab6107e8899845ad3d59bd9653f200f220920489ca2b5937696c31836040516117a891906130b1565b60405180910390a3505050565b6117c08484846111ca565b6117cc84848484611bab565b61180b576040517f08c379a00000000000000000000000000000000000000000000000000000000081526004016118029061312e565b60405180910390fd5b50505050565b606061181c82610fbf565b61185b576040517f08c379a0000000000000000000000000000000000000000000000000000000008152600401611852906132ce565b60405180910390fd5b6000600a6000848152602001908152602001600020805461187b90613624565b80601f01602080910402602001604051908101604052809291908181526020018280546118a790613624565b80156118f45780601f106118c9576101008083540402835291602001916118f4565b820191906000526020600020905b8154815290600101906020018083116118d757829003601f168201915b505050505090506000611905611d42565b905060008151141561191b57819250505061195e565b600082511115611950578082604051602001611938929190613026565b6040516020818303038152906040529250505061195e565b61195984611d59565b925050505b919050565b600081600001549050919050565b6001816000016000828254019250508190555050565b6119a1828260405180602001604052806000815250611e00565b5050565b6119ae82610fbf565b6119ed576040517f08c379a00000000000000000000000000000000000000000000000000000000081526004016119e49061328e565b60405180910390fd5b80600a60008481526020019081526020016000209080519060200190611a1492919061275f565b505050565b60007f80ac58cd000000000000000000000000000000000000000000000000000000007bffffffffffffffffffffffffffffffffffffffffffffffffffffffff1916827bffffffffffffffffffffffffffffffffffffffffffffffffffffffff19161480611ae457507f5b5e139f000000000000000000000000000000000000000000000000000000007bffffffffffffffffffffffffffffffffffffffffffffffffffffffff1916827bffffffffffffffffffffffffffffffffffffffffffffffffffffffff1916145b80611af45750611af382611e5b565b5b9050919050565b611b03610937565b15611b43576040517f08c379a0000000000000000000000000000000000000000000000000000000008152600401611b3a9061320e565b60405180910390fd5b611b4e838383611ec5565b505050565b505050565b611b6181611fd9565b6000600a60008381526020019081526020016000208054611b8190613624565b905014611ba857600a60008281526020019081526020016000206000611ba791906127e5565b5b50565b6000611bcc8473ffffffffffffffffffffffffffffffffffffffff166120f6565b15611d35578373ffffffffffffffffffffffffffffffffffffffff1663150b7a02611bf561102b565b8786866040518563ffffffff1660e01b8152600401611c179493929190613065565b602060405180830381600087803b158015611c3157600080fd5b505af1925050508015611c6257506040513d601f19601f82011682018060405250810190611c5f9190612bd7565b60015b611ce5573d8060008114611c92576040519150601f19603f3d011682016040523d82523d6000602084013e611c97565b606091505b50600081511415611cdd576040517f08c379a0000000000000000000000000000000000000000000000000000000008152600401611cd49061312e565b60405180910390fd5b805181602001fd5b63150b7a0260e01b7bffffffffffffffffffffffffffffffffffffffffffffffffffffffff1916817bffffffffffffffffffffffffffffffffffffffffffffffffffffffff191614915050611d3a565b600190505b949350505050565b606060405180602001604052806000815250905090565b6060611d6482610fbf565b611da3576040517f08c379a0000000000000000000000000000000000000000000000000000000008152600401611d9a9061332e565b60405180910390fd5b6000611dad611d42565b90506000815111611dcd5760405180602001604052806000815250611df8565b80611dd784612119565b604051602001611de8929190613026565b6040516020818303038152906040525b915050919050565b611e0a838361227a565b611e176000848484611bab565b611e56576040517f08c379a0000000000000000000000000000000000000000000000000000000008152600401611e4d9061312e565b60405180910390fd5b505050565b60007f01ffc9a7000000000000000000000000000000000000000000000000000000007bffffffffffffffffffffffffffffffffffffffffffffffffffffffff1916827bffffffffffffffffffffffffffffffffffffffffffffffffffffffff1916149050919050565b611ed0838383612454565b600073ffffffffffffffffffffffffffffffffffffffff168373ffffffffffffffffffffffffffffffffffffffff161415611f1357611f0e81612459565b611f52565b8173ffffffffffffffffffffffffffffffffffffffff168373ffffffffffffffffffffffffffffffffffffffff1614611f5157611f5083826124a2565b5b5b600073ffffffffffffffffffffffffffffffffffffffff168273ffffffffffffffffffffffffffffffffffffffff161415611f9557611f908161260f565b611fd4565b8273ffffffffffffffffffffffffffffffffffffffff168273ffffffffffffffffffffffffffffffffffffffff1614611fd357611fd282826126e0565b5b5b505050565b6000611fe48261094e565b9050611ff281600084611afb565b611ffd600083611033565b6001600360008373ffffffffffffffffffffffffffffffffffffffff1673ffffffffffffffffffffffffffffffffffffffff168152602001908152602001600020600082825461204d919061353a565b925050819055506002600083815260200190815260200160002060006101000a81549073ffffffffffffffffffffffffffffffffffffffff021916905581600073ffffffffffffffffffffffffffffffffffffffff168273ffffffffffffffffffffffffffffffffffffffff167fddf252ad1be2c89b69c2b068fc378daa952ba7f163c4a11628f55a4df523b3ef60405160405180910390a46120f281600084611b53565b5050565b6000808273ffffffffffffffffffffffffffffffffffffffff163b119050919050565b60606000821415612161576040518060400160405280600181526020017f30000000000000000000000000000000000000000000000000000000000000008152509050612275565b600082905060005b6000821461219357808061217c90613687565b915050600a8261218c9190613509565b9150612169565b60008167ffffffffffffffff8111156121af576121ae6137ec565b5b6040519080825280601f01601f1916602001820160405280156121e15781602001600182028036833780820191505090505b5090505b6000851461226e576001826121fa919061353a565b9150600a8561220991906136d0565b603061221591906134b3565b60f81b81838151811061222b5761222a6137bd565b5b60200101907effffffffffffffffffffffffffffffffffffffffffffffffffffffffffffff1916908160001a905350600a856122679190613509565b94506121e5565b8093505050505b919050565b600073ffffffffffffffffffffffffffffffffffffffff168273ffffffffffffffffffffffffffffffffffffffff1614156122ea576040517f08c379a00000000000000000000000000000000000000000000000000000000081526004016122e1906132ae565b60405180910390fd5b6122f381610fbf565b15612333576040517f08c379a000000000000000000000000000000000000000000000000000000000815260040161232a9061318e565b60405180910390fd5b61233f60008383611afb565b6001600360008473ffffffffffffffffffffffffffffffffffffffff1673ffffffffffffffffffffffffffffffffffffffff168152602001908152602001600020600082825461238f91906134b3565b92505081905550816002600083815260200190815260200160002060006101000a81548173ffffffffffffffffffffffffffffffffffffffff021916908373ffffffffffffffffffffffffffffffffffffffff160217905550808273ffffffffffffffffffffffffffffffffffffffff16600073ffffffffffffffffffffffffffffffffffffffff167fddf252ad1be2c89b69c2b068fc378daa952ba7f163c4a11628f55a4df523b3ef60405160405180910390a461245060008383611b53565b5050565b505050565b6008805490506009600083815260200190815260200160002081905550600881908060018154018082558091505060019003906000526020600020016000909190919091505550565b600060016124af84610a00565b6124b9919061353a565b905060006007600084815260200190815260200160002054905081811461259e576000600660008673ffffffffffffffffffffffffffffffffffffffff1673ffffffffffffffffffffffffffffffffffffffff168152602001908152602001600020600084815260200190815260200160002054905080600660008773ffffffffffffffffffffffffffffffffffffffff1673ffffffffffffffffffffffffffffffffffffffff168152602001908152602001600020600084815260200190815260200160002081905550816007600083815260200190815260200160002081905550505b6007600084815260200190815260200160002060009055600660008573ffffffffffffffffffffffffffffffffffffffff1673ffffffffffffffffffffffffffffffffffffffff16815260200190815260200160002060008381526020019081526020016000206000905550505050565b60006001600880549050612623919061353a565b9050600060096000848152602001908152602001600020549050600060088381548110612653576126526137bd565b5b906000526020600020015490508060088381548110612675576126746137bd565b5b9060005260206000200181905550816009600083815260200190815260200160002081905550600960008581526020019081526020016000206000905560088054806126c4576126c361378e565b5b6001900381819060005260206000200160009055905550505050565b60006126eb83610a00565b905081600660008573ffffffffffffffffffffffffffffffffffffffff1673ffffffffffffffffffffffffffffffffffffffff168152602001908152602001600020600083815260200190815260200160002081905550806007600084815260200190815260200160002081905550505050565b82805461276b90613624565b90600052602060002090601f01602090048101928261278d57600085556127d4565b82601f106127a657805160ff19168380011785556127d4565b828001600101855582156127d4579182015b828111156127d35782518255916020019190600101906127b8565b5b5090506127e19190612825565b5090565b5080546127f190613624565b6000825580601f106128035750612822565b601f0160209004906000526020600020908101906128219190612825565b5b50565b5b8082111561283e576000816000905550600101612826565b5090565b60006128556128508461340e565b6133e9565b90508281526020810184848401111561287157612870613820565b5b61287c8482856135e2565b509392505050565b60006128976128928461343f565b6133e9565b9050828152602081018484840111156128b3576128b2613820565b5b6128be8482856135e2565b509392505050565b6000813590506128d581613e75565b92915050565b6000813590506128ea81613e8c565b92915050565b6000813590506128ff81613ea3565b92915050565b60008151905061291481613ea3565b92915050565b600082601f83011261292f5761292e61381b565b5b813561293f848260208601612842565b91505092915050565b600082601f83011261295d5761295c61381b565b5b813561296d848260208601612884565b91505092915050565b60008135905061298581613eba565b92915050565b6000602082840312156129a1576129a061382a565b5b60006129af848285016128c6565b91505092915050565b600080604083850312156129cf576129ce61382a565b5b60006129dd858286016128c6565b92505060206129ee858286016128c6565b9150509250929050565b600080600060608486031215612a1157612a1061382a565b5b6000612a1f868287016128c6565b9350506020612a30868287016128c6565b9250506040612a4186828701612976565b9150509250925092565b60008060008060808587031215612a6557612a6461382a565b5b6000612a73878288016128c6565b9450506020612a84878288016128c6565b9350506040612a9587828801612976565b925050606085013567ffffffffffffffff811115612ab657612ab5613825565b5b612ac28782880161291a565b91505092959194509250565b60008060408385031215612ae557612ae461382a565b5b6000612af3858286016128c6565b9250506020612b04858286016128db565b9150509250929050565b60008060408385031215612b2557612b2461382a565b5b6000612b33858286016128c6565b925050602083013567ffffffffffffffff811115612b5457612b53613825565b5b612b6085828601612948565b9150509250929050565b60008060408385031215612b8157612b8061382a565b5b6000612b8f858286016128c6565b9250506020612ba085828601612976565b9150509250929050565b600060208284031215612bc057612bbf61382a565b5b6000612bce848285016128f0565b91505092915050565b600060208284031215612bed57612bec61382a565b5b6000612bfb84828501612905565b91505092915050565b600060208284031215612c1a57612c1961382a565b5b6000612c2884828501612976565b91505092915050565b612c3a8161356e565b82525050565b612c4981613580565b82525050565b6000612c5a82613470565b612c648185613486565b9350612c748185602086016135f1565b612c7d8161382f565b840191505092915050565b6000612c938261347b565b612c9d8185613497565b9350612cad8185602086016135f1565b612cb68161382f565b840191505092915050565b6000612ccc8261347b565b612cd681856134a8565b9350612ce68185602086016135f1565b80840191505092915050565b6000612cff601483613497565b9150612d0a82613840565b602082019050919050565b6000612d22602b83613497565b9150612d2d82613869565b604082019050919050565b6000612d45603283613497565b9150612d50826138b8565b604082019050919050565b6000612d68602683613497565b9150612d7382613907565b604082019050919050565b6000612d8b602583613497565b9150612d9682613956565b604082019050919050565b6000612dae601c83613497565b9150612db9826139a5565b602082019050919050565b6000612dd1602483613497565b9150612ddc826139ce565b604082019050919050565b6000612df4601983613497565b9150612dff82613a1d565b602082019050919050565b6000612e17602c83613497565b9150612e2282613a46565b604082019050919050565b6000612e3a601083613497565b9150612e4582613a95565b602082019050919050565b6000612e5d603883613497565b9150612e6882613abe565b604082019050919050565b6000612e80602a83613497565b9150612e8b82613b0d565b604082019050919050565b6000612ea3602983613497565b9150612eae82613b5c565b604082019050919050565b6000612ec6602e83613497565b9150612ed182613bab565b604082019050919050565b6000612ee9602083613497565b9150612ef482613bfa565b602082019050919050565b6000612f0c603183613497565b9150612f1782613c23565b604082019050919050565b6000612f2f602c83613497565b9150612f3a82613c72565b604082019050919050565b6000612f52602083613497565b9150612f5d82613cc1565b602082019050919050565b6000612f75602f83613497565b9150612f8082613cea565b604082019050919050565b6000612f98602183613497565b9150612fa382613d39565b604082019050919050565b6000612fbb603183613497565b9150612fc682613d88565b604082019050919050565b6000612fde602c83613497565b9150612fe982613dd7565b604082019050919050565b6000613001603083613497565b915061300c82613e26565b604082019050919050565b613020816135d8565b82525050565b60006130328285612cc1565b915061303e8284612cc1565b91508190509392505050565b600060208201905061305f6000830184612c31565b92915050565b600060808201905061307a6000830187612c31565b6130876020830186612c31565b6130946040830185613017565b81810360608301526130a68184612c4f565b905095945050505050565b60006020820190506130c66000830184612c40565b92915050565b600060208201905081810360008301526130e68184612c88565b905092915050565b6000602082019050818103600083015261310781612cf2565b9050919050565b6000602082019050818103600083015261312781612d15565b9050919050565b6000602082019050818103600083015261314781612d38565b9050919050565b6000602082019050818103600083015261316781612d5b565b9050919050565b6000602082019050818103600083015261318781612d7e565b9050919050565b600060208201905081810360008301526131a781612da1565b9050919050565b600060208201905081810360008301526131c781612dc4565b9050919050565b600060208201905081810360008301526131e781612de7565b9050919050565b6000602082019050818103600083015261320781612e0a565b9050919050565b6000602082019050818103600083015261322781612e2d565b9050919050565b6000602082019050818103600083015261324781612e50565b9050919050565b6000602082019050818103600083015261326781612e73565b9050919050565b6000602082019050818103600083015261328781612e96565b9050919050565b600060208201905081810360008301526132a781612eb9565b9050919050565b600060208201905081810360008301526132c781612edc565b9050919050565b600060208201905081810360008301526132e781612eff565b9050919050565b6000602082019050818103600083015261330781612f22565b9050919050565b6000602082019050818103600083015261332781612f45565b9050919050565b6000602082019050818103600083015261334781612f68565b9050919050565b6000602082019050818103600083015261336781612f8b565b9050919050565b6000602082019050818103600083015261338781612fae565b9050919050565b600060208201905081810360008301526133a781612fd1565b9050919050565b600060208201905081810360008301526133c781612ff4565b9050919050565b60006020820190506133e36000830184613017565b92915050565b60006133f3613404565b90506133ff8282613656565b919050565b6000604051905090565b600067ffffffffffffffff821115613429576134286137ec565b5b6134328261382f565b9050602081019050919050565b600067ffffffffffffffff82111561345a576134596137ec565b5b6134638261382f565b9050602081019050919050565b600081519050919050565b600081519050919050565b600082825260208201905092915050565b600082825260208201905092915050565b600081905092915050565b60006134be826135d8565b91506134c9836135d8565b9250827fffffffffffffffffffffffffffffffffffffffffffffffffffffffffffffffff038211156134fe576134fd613701565b5b828201905092915050565b6000613514826135d8565b915061351f836135d8565b92508261352f5761352e613730565b5b828204905092915050565b6000613545826135d8565b9150613550836135d8565b92508282101561356357613562613701565b5b828203905092915050565b6000613579826135b8565b9050919050565b60008115159050919050565b60007fffffffff0000000000000000000000000000000000000000000000000000000082169050919050565b600073ffffffffffffffffffffffffffffffffffffffff82169050919050565b6000819050919050565b82818337600083830152505050565b60005b8381101561360f5780820151818401526020810190506135f4565b8381111561361e576000848401525b50505050565b6000600282049050600182168061363c57607f821691505b602082108114156136505761364f61375f565b5b50919050565b61365f8261382f565b810181811067ffffffffffffffff8211171561367e5761367d6137ec565b5b80604052505050565b6000613692826135d8565b91507fffffffffffffffffffffffffffffffffffffffffffffffffffffffffffffffff8214156136c5576136c4613701565b5b600182019050919050565b60006136db826135d8565b91506136e6836135d8565b9250826136f6576136f5613730565b5b828206905092915050565b7f4e487b7100000000000000000000000000000000000000000000000000000000600052601160045260246000fd5b7f4e487b7100000000000000000000000000000000000000000000000000000000600052601260045260246000fd5b7f4e487b7100000000000000000000000000000000000000000000000000000000600052602260045260246000fd5b7f4e487b7100000000000000000000000000000000000000000000000000000000600052603160045260246000fd5b7f4e487b7100000000000000000000000000000000000000000000000000000000600052603260045260246000fd5b7f4e487b7100000000000000000000000000000000000000000000000000000000600052604160045260246000fd5b600080fd5b600080fd5b600080fd5b600080fd5b6000601f19601f8301169050919050565b7f5061757361626c653a206e6f7420706175736564000000000000000000000000600082015250565b7f455243373231456e756d657261626c653a206f776e657220696e646578206f7560008201527f74206f6620626f756e6473000000000000000000000000000000000000000000602082015250565b7f4552433732313a207472616e7366657220746f206e6f6e20455243373231526560008201527f63656976657220696d706c656d656e7465720000000000000000000000000000602082015250565b7f4f776e61626c653a206e6577206f776e657220697320746865207a65726f206160008201527f6464726573730000000000000000000000000000000000000000000000000000602082015250565b7f4552433732313a207472616e736665722066726f6d20696e636f72726563742060008201527f6f776e6572000000000000000000000000000000000000000000000000000000602082015250565b7f4552433732313a20746f6b656e20616c7265616479206d696e74656400000000600082015250565b7f4552433732313a207472616e7366657220746f20746865207a65726f2061646460008201527f7265737300000000000000000000000000000000000000000000000000000000602082015250565b7f4552433732313a20617070726f766520746f2063616c6c657200000000000000600082015250565b7f4552433732313a206f70657261746f7220717565727920666f72206e6f6e657860008201527f697374656e7420746f6b656e0000000000000000000000000000000000000000602082015250565b7f5061757361626c653a2070617573656400000000000000000000000000000000600082015250565b7f4552433732313a20617070726f76652063616c6c6572206973206e6f74206f7760008201527f6e6572206e6f7220617070726f76656420666f7220616c6c0000000000000000602082015250565b7f4552433732313a2062616c616e636520717565727920666f7220746865207a6560008201527f726f206164647265737300000000000000000000000000000000000000000000602082015250565b7f4552433732313a206f776e657220717565727920666f72206e6f6e657869737460008201527f656e7420746f6b656e0000000000000000000000000000000000000000000000602082015250565b7f45524337323155524953746f726167653a2055524920736574206f66206e6f6e60008201527f6578697374656e7420746f6b656e000000000000000000000000000000000000602082015250565b7f4552433732313a206d696e7420746f20746865207a65726f2061646472657373600082015250565b7f45524337323155524953746f726167653a2055524920717565727920666f722060008201527f6e6f6e6578697374656e7420746f6b656e000000000000000000000000000000602082015250565b7f4552433732313a20617070726f76656420717565727920666f72206e6f6e657860008201527f697374656e7420746f6b656e0000000000000000000000000000000000000000602082015250565b7f4f776e61626c653a2063616c6c6572206973206e6f7420746865206f776e6572600082015250565b7f4552433732314d657461646174613a2055524920717565727920666f72206e6f60008201527f6e6578697374656e7420746f6b656e0000000000000000000000000000000000602082015250565b7f4552433732313a20617070726f76616c20746f2063757272656e74206f776e6560008201527f7200000000000000000000000000000000000000000000000000000000000000602082015250565b7f4552433732313a207472616e736665722063616c6c6572206973206e6f74206f60008201527f776e6572206e6f7220617070726f766564000000000000000000000000000000602082015250565b7f455243373231456e756d657261626c653a20676c6f62616c20696e646578206f60008201527f7574206f6620626f756e64730000000000000000000000000000000000000000602082015250565b7f4552433732314275726e61626c653a2063616c6c6572206973206e6f74206f7760008201527f6e6572206e6f7220617070726f76656400000000000000000000000000000000602082015250565b613e7e8161356e565b8114613e8957600080fd5b50565b613e9581613580565b8114613ea057600080fd5b50565b613eac8161358c565b8114613eb757600080fd5b50565b613ec3816135d8565b8114613ece57600080fd5b5056fea2646970667358221220fbd0b324bba32f7d83486671cf091b7ac338e35a26595b6ef7d7b9c6e1133ef264736f6c63430008050033",
  "linkReferences": {},
  "deployedLinkReferences": {}
}