{
  "_format": "hh-sol-artifact-1",
  "contractName": "VotingPower",
  "sourceName": "contracts/VotingPowerStore.sol",
  "abi": [
    {
      "inputs": [],
      "stateMutability": "nonpayable",
      "type": "constructor"
    },
    {
      "anonymous": false,
      "inputs": [
        {
          "indexed": true,
          "internalType": "address",
          "name": "previousOwner",
          "type": "address"
        },
        {
          "indexed": true,
          "internalType": "address",
          "name": "newOwner",
          "type": "address"
        }
      ],
      "name": "OwnershipTransferred",
      "type": "event"
    },
    {
      "inputs": [],
      "name": "getDivisor",
      "outputs": [
        {
          "internalType": "uint256",
          "name": "_divisor",
          "type": "uint256"
        }
      ],
      "stateMutability": "view",
      "type": "function"
    },
    {
      "inputs": [],
      "name": "getMinimumVotingPower",
      "outputs": [
        {
          "internalType": "uint256",
          "name": "_minimumVotingPower",
          "type": "uint256"
        }
      ],
      "stateMutability": "view",
      "type": "function"
    },
    {
      "inputs": [
        {
          "internalType": "string",
          "name": "sequenceName",
          "type": "string"
        }
      ],
      "name": "getMultiplier",
      "outputs": [
        {
          "internalType": "uint256",
          "name": "_multiplier",
          "type": "uint256"
        }
      ],
      "stateMutability": "view",
      "type": "function"
    },
    {
      "inputs": [
        {
          "internalType": "string",
          "name": "card",
          "type": "string"
        }
      ],
      "name": "getVotingPower",
      "outputs": [
        {
          "internalType": "uint256",
          "name": "_votingPower",
          "type": "uint256"
        }
      ],
      "stateMutability": "view",
      "type": "function"
    },
    {
      "inputs": [],
      "name": "owner",
      "outputs": [
        {
          "internalType": "address",
          "name": "",
          "type": "address"
        }
      ],
      "stateMutability": "view",
      "type": "function"
    },
    {
      "inputs": [],
      "name": "renounceOwnership",
      "outputs": [],
      "stateMutability": "nonpayable",
      "type": "function"
    },
    {
      "inputs": [
        {
          "internalType": "uint256",
          "name": "_divisor",
          "type": "uint256"
        }
      ],
      "name": "setDivisor",
      "outputs": [],
      "stateMutability": "nonpayable",
      "type": "function"
    },
    {
      "inputs": [
        {
          "internalType": "uint256",
          "name": "power",
          "type": "uint256"
        }
      ],
      "name": "setMinimumVotingPower",
      "outputs": [],
      "stateMutability": "nonpayable",
      "type": "function"
    },
    {
      "inputs": [
        {
          "internalType": "string",
          "name": "sequenceName",
          "type": "string"
        },
        {
          "internalType": "uint256",
          "name": "_multiplier",
          "type": "uint256"
        }
      ],
      "name": "setMultiplier",
      "outputs": [],
      "stateMutability": "nonpayable",
      "type": "function"
    },
    {
      "inputs": [
        {
          "internalType": "string",
          "name": "card",
          "type": "string"
        },
        {
          "internalType": "uint256",
          "name": "_votingPower",
          "type": "uint256"
        }
      ],
      "name": "setVotingPower",
      "outputs": [],
      "stateMutability": "nonpayable",
      "type": "function"
    },
    {
      "inputs": [
        {
          "internalType": "address",
          "name": "newOwner",
          "type": "address"
        }
      ],
      "name": "transferOwnership",
      "outputs": [],
      "stateMutability": "nonpayable",
      "type": "function"
    }
  ],
  "bytecode": "0x608060405260646003556113886004553480156200001c57600080fd5b506200003d620000316200039c60201b60201c565b620003a460201b60201c565b6207a120600160405162000051906200092b565b9081526020016040518091039020819055506207a1206001604051620000779062000845565b9081526020016040518091039020819055506207a12060016040516200009d9062000800565b9081526020016040518091039020819055506207a1206001604051620000c39062000959565b9081526020016040518091039020819055506207a1206001604051620000e990620009b5565b9081526020016040518091039020819055506207a12060016040516200010f9062000873565b9081526020016040518091039020819055506207a12060016040516200013590620009e3565b9081526020016040518091039020819055506207a12060016040516200015b9062000970565b9081526020016040518091039020819055506207a120600160405162000181906200082e565b908152602001604051809103902081905550620f42406001604051620001a790620008e6565b908152602001604051809103902081905550620f42406001604051620001cd90620008a1565b908152602001604051809103902081905550620f42406001604051620001f390620008fd565b908152602001604051809103902081905550620f424060016040516200021990620007e9565b908152602001604051809103902081905550620f424060016040516200023f90620009cc565b9081526020016040518091039020819055506069600260405162000263906200099e565b90815260200160405180910390208190555060736002604051620002879062000942565b908152602001604051809103902081905550607f6002604051620002ab9062000817565b90815260200160405180910390208190555060916002604051620002cf906200088a565b90815260200160405180910390208190555060a76002604051620002f390620008b8565b90815260200160405180910390208190555060be6002604051620003179062000987565b90815260200160405180910390208190555060da60026040516200033b90620008cf565b90815260200160405180910390208190555060f860026040516200035f906200085c565b90815260200160405180910390208190555061012c6002604051620003849062000914565b90815260200160405180910390208190555062000db4565b600033905090565b60008060009054906101000a900473ffffffffffffffffffffffffffffffffffffffff169050816000806101000a81548173ffffffffffffffffffffffffffffffffffffffff021916908373ffffffffffffffffffffffffffffffffffffffff1602179055508173ffffffffffffffffffffffffffffffffffffffff168173ffffffffffffffffffffffffffffffffffffffff167f8be0079c531659141344cd1fd0a4f28419497f9722a3daafe3b4186f6b6457e060405160405180910390a35050565b600062000477600183620009fa565b9150620004848262000a05565b600182019050919050565b60006200049e600183620009fa565b9150620004ab8262000a2e565b600182019050919050565b6000620004c5600c83620009fa565b9150620004d28262000a57565b600c82019050919050565b6000620004ec600283620009fa565b9150620004f98262000a80565b600282019050919050565b600062000513600183620009fa565b9150620005208262000aa9565b600182019050919050565b60006200053a600d83620009fa565b9150620005478262000ad2565b600d82019050919050565b600062000561600183620009fa565b91506200056e8262000afb565b600182019050919050565b600062000588600883620009fa565b9150620005958262000b24565b600882019050919050565b6000620005af600183620009fa565b9150620005bc8262000b4d565b600182019050919050565b6000620005d6600583620009fa565b9150620005e38262000b76565b600582019050919050565b6000620005fd600b83620009fa565b91506200060a8262000b9f565b600b82019050919050565b600062000624600183620009fa565b9150620006318262000bc8565b600182019050919050565b60006200064b600183620009fa565b9150620006588262000bf1565b600182019050919050565b600062000672600a83620009fa565b91506200067f8262000c1a565b600a82019050919050565b600062000699600183620009fa565b9150620006a68262000c43565b600182019050919050565b6000620006c0600783620009fa565b9150620006cd8262000c6c565b600782019050919050565b6000620006e7600183620009fa565b9150620006f48262000c95565b600182019050919050565b60006200070e600183620009fa565b91506200071b8262000cbe565b600182019050919050565b600062000735600983620009fa565b9150620007428262000ce7565b600982019050919050565b60006200075c600783620009fa565b9150620007698262000d10565b600782019050919050565b600062000783600183620009fa565b9150620007908262000d39565b600182019050919050565b6000620007aa600583620009fa565b9150620007b78262000d62565b600582019050919050565b6000620007d1600183620009fa565b9150620007de8262000d8b565b600182019050919050565b6000620007f68262000468565b9150819050919050565b60006200080d826200048f565b9150819050919050565b60006200082482620004b6565b9150819050919050565b60006200083b82620004dd565b9150819050919050565b6000620008528262000504565b9150819050919050565b600062000869826200052b565b9150819050919050565b6000620008808262000552565b9150819050919050565b6000620008978262000579565b9150819050919050565b6000620008ae82620005a0565b9150819050919050565b6000620008c582620005c7565b9150819050919050565b6000620008dc82620005ee565b9150819050919050565b6000620008f38262000615565b9150819050919050565b60006200090a826200063c565b9150819050919050565b6000620009218262000663565b9150819050919050565b600062000938826200068a565b9150819050919050565b60006200094f82620006b1565b9150819050919050565b60006200096682620006d8565b9150819050919050565b60006200097d82620006ff565b9150819050919050565b6000620009948262000726565b9150819050919050565b6000620009ab826200074d565b9150819050919050565b6000620009c28262000774565b9150819050919050565b6000620009d9826200079b565b9150819050919050565b6000620009f082620007c2565b9150819050919050565b600081905092915050565b7f4100000000000000000000000000000000000000000000000000000000000000600082015250565b7f3400000000000000000000000000000000000000000000000000000000000000600082015250565b7f74687265654f66414b696e640000000000000000000000000000000000000000600082015250565b7f3130000000000000000000000000000000000000000000000000000000000000600082015250565b7f3300000000000000000000000000000000000000000000000000000000000000600082015250565b7f7374726169676874466c75736800000000000000000000000000000000000000600082015250565b7f3700000000000000000000000000000000000000000000000000000000000000600082015250565b7f7374726169676874000000000000000000000000000000000000000000000000600082015250565b7f4400000000000000000000000000000000000000000000000000000000000000600082015250565b7f666c757368000000000000000000000000000000000000000000000000000000600082015250565b7f666f75724f66414b696e64000000000000000000000000000000000000000000600082015250565b7f4a00000000000000000000000000000000000000000000000000000000000000600082015250565b7f4b00000000000000000000000000000000000000000000000000000000000000600082015250565b7f726f79616c466c75736800000000000000000000000000000000000000000000600082015250565b7f3200000000000000000000000000000000000000000000000000000000000000600082015250565b7f74776f5061697200000000000000000000000000000000000000000000000000600082015250565b7f3500000000000000000000000000000000000000000000000000000000000000600082015250565b7f3900000000000000000000000000000000000000000000000000000000000000600082015250565b7f66756c6c486f7573650000000000000000000000000000000000000000000000600082015250565b7f6f6e655061697200000000000000000000000000000000000000000000000000600082015250565b7f3600000000000000000000000000000000000000000000000000000000000000600082015250565b7f4a6f6b6572000000000000000000000000000000000000000000000000000000600082015250565b7f3800000000000000000000000000000000000000000000000000000000000000600082015250565b610c408062000dc46000396000f3fe608060405234801561001057600080fd5b50600436106100a95760003560e01c80638da5cb5b116100715780638da5cb5b1461013e578063c3fad6511461015c578063c41abefa14610178578063dae13851146101a8578063e5eb6ab5146101c4578063f2fde38b146101e2576100a9565b806342da4a60146100ae578063709f5ccc146100ca578063715018a6146100e6578063739fdb01146100f057806380e9e17c1461010e575b600080fd5b6100c860048036038101906100c39190610895565b6101fe565b005b6100e460048036038101906100df9190610895565b610284565b005b6100ee61030a565b005b6100f8610392565b60405161010591906109c9565b60405180910390f35b610128600480360381019061012391906107f0565b61039c565b60405161013591906109c9565b60405180910390f35b6101466103c4565b604051610153919061096e565b60405180910390f35b61017660048036038101906101719190610839565b6103ed565b005b610192600480360381019061018d91906107f0565b610490565b60405161019f91906109c9565b60405180910390f35b6101c260048036038101906101bd9190610839565b6104b8565b005b6101cc61055b565b6040516101d991906109c9565b60405180910390f35b6101fc60048036038101906101f791906107c3565b610565565b005b61020661065d565b73ffffffffffffffffffffffffffffffffffffffff166102246103c4565b73ffffffffffffffffffffffffffffffffffffffff161461027a576040517f08c379a0000000000000000000000000000000000000000000000000000000008152600401610271906109a9565b60405180910390fd5b8060048190555050565b61028c61065d565b73ffffffffffffffffffffffffffffffffffffffff166102aa6103c4565b73ffffffffffffffffffffffffffffffffffffffff1614610300576040517f08c379a00000000000000000000000000000000000000000000000000000000081526004016102f7906109a9565b60405180910390fd5b8060038190555050565b61031261065d565b73ffffffffffffffffffffffffffffffffffffffff166103306103c4565b73ffffffffffffffffffffffffffffffffffffffff1614610386576040517f08c379a000000000000000000000000000000000000000000000000000000000815260040161037d906109a9565b60405180910390fd5b6103906000610665565b565b6000600454905090565b60006001826040516103ae9190610957565b9081526020016040518091039020549050919050565b60008060009054906101000a900473ffffffffffffffffffffffffffffffffffffffff16905090565b6103f561065d565b73ffffffffffffffffffffffffffffffffffffffff166104136103c4565b73ffffffffffffffffffffffffffffffffffffffff1614610469576040517f08c379a0000000000000000000000000000000000000000000000000000000008152600401610460906109a9565b60405180910390fd5b8060018360405161047a9190610957565b9081526020016040518091039020819055505050565b60006002826040516104a29190610957565b9081526020016040518091039020549050919050565b6104c061065d565b73ffffffffffffffffffffffffffffffffffffffff166104de6103c4565b73ffffffffffffffffffffffffffffffffffffffff1614610534576040517f08c379a000000000000000000000000000000000000000000000000000000000815260040161052b906109a9565b60405180910390fd5b806002836040516105459190610957565b9081526020016040518091039020819055505050565b6000600354905090565b61056d61065d565b73ffffffffffffffffffffffffffffffffffffffff1661058b6103c4565b73ffffffffffffffffffffffffffffffffffffffff16146105e1576040517f08c379a00000000000000000000000000000000000000000000000000000000081526004016105d8906109a9565b60405180910390fd5b600073ffffffffffffffffffffffffffffffffffffffff168173ffffffffffffffffffffffffffffffffffffffff161415610651576040517f08c379a000000000000000000000000000000000000000000000000000000000815260040161064890610989565b60405180910390fd5b61065a81610665565b50565b600033905090565b60008060009054906101000a900473ffffffffffffffffffffffffffffffffffffffff169050816000806101000a81548173ffffffffffffffffffffffffffffffffffffffff021916908373ffffffffffffffffffffffffffffffffffffffff1602179055508173ffffffffffffffffffffffffffffffffffffffff168173ffffffffffffffffffffffffffffffffffffffff167f8be0079c531659141344cd1fd0a4f28419497f9722a3daafe3b4186f6b6457e060405160405180910390a35050565b600061073c61073784610a09565b6109e4565b90508281526020810184848401111561075857610757610b44565b5b610763848285610a9d565b509392505050565b60008135905061077a81610bdc565b92915050565b600082601f83011261079557610794610b3f565b5b81356107a5848260208601610729565b91505092915050565b6000813590506107bd81610bf3565b92915050565b6000602082840312156107d9576107d8610b4e565b5b60006107e78482850161076b565b91505092915050565b60006020828403121561080657610805610b4e565b5b600082013567ffffffffffffffff81111561082457610823610b49565b5b61083084828501610780565b91505092915050565b600080604083850312156108505761084f610b4e565b5b600083013567ffffffffffffffff81111561086e5761086d610b49565b5b61087a85828601610780565b925050602061088b858286016107ae565b9150509250929050565b6000602082840312156108ab576108aa610b4e565b5b60006108b9848285016107ae565b91505092915050565b6108cb81610a61565b82525050565b60006108dc82610a3a565b6108e68185610a56565b93506108f6818560208601610aac565b80840191505092915050565b600061090f602683610a45565b915061091a82610b64565b604082019050919050565b6000610932602083610a45565b915061093d82610bb3565b602082019050919050565b61095181610a93565b82525050565b600061096382846108d1565b915081905092915050565b600060208201905061098360008301846108c2565b92915050565b600060208201905081810360008301526109a281610902565b9050919050565b600060208201905081810360008301526109c281610925565b9050919050565b60006020820190506109de6000830184610948565b92915050565b60006109ee6109ff565b90506109fa8282610adf565b919050565b6000604051905090565b600067ffffffffffffffff821115610a2457610a23610b10565b5b610a2d82610b53565b9050602081019050919050565b600081519050919050565b600082825260208201905092915050565b600081905092915050565b6000610a6c82610a73565b9050919050565b600073ffffffffffffffffffffffffffffffffffffffff82169050919050565b6000819050919050565b82818337600083830152505050565b60005b83811015610aca578082015181840152602081019050610aaf565b83811115610ad9576000848401525b50505050565b610ae882610b53565b810181811067ffffffffffffffff82111715610b0757610b06610b10565b5b80604052505050565b7f4e487b7100000000000000000000000000000000000000000000000000000000600052604160045260246000fd5b600080fd5b600080fd5b600080fd5b600080fd5b6000601f19601f8301169050919050565b7f4f776e61626c653a206e6577206f776e657220697320746865207a65726f206160008201527f6464726573730000000000000000000000000000000000000000000000000000602082015250565b7f4f776e61626c653a2063616c6c6572206973206e6f7420746865206f776e6572600082015250565b610be581610a61565b8114610bf057600080fd5b50565b610bfc81610a93565b8114610c0757600080fd5b5056fea264697066735822122045de2e3addca9e937dae6c89669c9eccf99d1b2f7b53102731aca08acad51c1464736f6c63430008050033",
  "linkReferences": {},
  "deployedLinkReferences": {}
}